:400000000080002011000000410600004106000008B5044B1A6803F53F5302331A6000F017FB00BFFA46004010B5054C237833B9044B13B10448AFF300800123237010BDD7
:400040003081FF1F00000000641B0000084B10B51BB108490848AFF300800848036803B910BD074B002BFBD0BDE81040184700BF000000003481FF1F641B0000C880FF1F34
:400080000000000008B500F0B7FD164A13781844107000F067FC144A13781844107000F0CFFC124A13781844107000F037FD104A1378184410700F4B1B68082B0AD100238F
:4000C000084A1370084A1370084A1370084A1370084A1360074A13680133136000F088FB08BD00BF3A82FF1F3882FF1F3B82FF1F3982FF1F4C81FF1F08B5322000F0C4FD6C
:40010000322000F035FE08BD08B5442000F0BCFD212000F02DFE00F07FFD0028FBD000F083FD0028FBD100F07FFD0028F7D10022044B1A71412000F0A7FD422000F018FEE7
:4001400008BD00BF4C81FF1F08B5212000F09CFD442000F00DFE00F057FD0028FBD000F063FD0028FBD100F05FFD0028F7D10022044B1A71412000F087FD422000F0F8FD5B
:4001800008BD00BF4C81FF1F08B51E2000F07CFD1E2000F0EDFD08BD70B50646002000F069FE24E0204B1B784BB1204A127832B900F032FE0130C0B200F0DAFD17E04BB945
:4001C0001A4A127832B100F0B3FD0130C0B200F05BFD0CE0154A12783AB933B9412000F053FD422000F0C4FD01E0FFF7CDFF00F02BFE01F077F904460D46304601F072F9AF
:4002000007A3D3E9002301F0D3F902460B462046294601F03FFC0028C4D1FFF76DFF70BD9A999999999926403A82FF1F3882FF1F08B5134B1B784BB1124A127832B900F078
:40024000EBFD0130C0B200F093FD08BD4BB90D4A127832B100F06CFD0130C0B200F014FD08BD084A12783AB933B9442000F00CFD452000F07DFD08BDFFF786FF08BD00BF79
:400280003A82FF1F3882FF1F08B562B600F0F6FA204800F085FA00F0A1FC00F055FB00F0C1FB00F02DFC00F0C7FC00F033FD00F0A5FD642000F0E2FC642000F053FD3220A1
:4002C00000F0E2FC322000F053FD00F00FFE00F081FE002000F0CEFD2320FFF75DFF01E0FFF7A6FF00F090FC0028F9D1FFF72CFF1A20FFF751FF01E0FFF79AFF00F08CFC4F
:400300000028F9D1FFF700FF0A20FFF745FFFFF7F3FEFEE785000000FEE700BFF0B40022174611E050F82760F3B226F0FF0608E001EB420511F812406D78A5550132013B16
:40034000DBB2002BF4D10137232FEBD9F0BC7047164B1B78DBB203F00701154A11701B09013213700F22134B1A70022203F22F731A70102203F515731A7040230E4A137041
:40038000802105321170033213700532137003321370202105321170033213705022074B1A704422A3F2E2231A707047CF0100496E5800403D510040C35A0040585B00403D
:4003C00008B50A46002101F0C4FB08BD08B501F0B5FB08BD38B50322314B1A801823314A13702F2230490A801C200231087002310A802E4A137004222D492E48FFF7E6FFF6
:4004000006222D4B1A705222A3F580731A702B4B1B78DBB22A4A13704FF4E262294B1A8041F25122023B1A80002419250CE0264B1B7803F0010343EA440404F003044FF46E
:40044000F07000F0EDFE013D0DB1032CEFD115B90320FFF761FF1D4A4FF4807313800723137000231A490B704820023108701370053213700222174B1A7004220A331A70E4
:40048000154A137843F007031370013A137843F001031370013A137843F08003137038BD8040004082400040844000408A400040B409004800410040004300400F010049AC
:4004C000A14600402242004025420040044000400640004001400040A243004038B572B6404A137843F00403137000240CE03E4D630019194A0011462A44084691882858CD
:40050000FFF75EFF0134E4B2062CF0D937494FF09040FFF703FF0322354B1A8040F2031202331A8040F2032202331A8040F2033202331A802F4A03F52A430A331A60A2F53E
:400540000032A2F5007203F5A0531A602A4A137843F0020313701032137843F002031370264C237843F040032370A2F58632513A137843F010031370082221492148FFF762
:4005800025FF082220492148FFF720FF082220492048FFF71BFF08221F492048FFF716FF08221F491F48FFF711FF08221E491F48FFF70CFF1E4A137843F0080313701D4DE0
:4005C00061232B70FFF706FFC1232B7001221A4B1A70FFF7BDFE0E2221461848FFF7F6FE38BD00BFE8460040681B00009000004848580040040A0A4403500140A04300404E
:4006000084090048025100408C090048C251004094090048F25100409C09004812510040A409004822510040AC09004832510040224300400048004004000840B043004016
:4006400008B501F04FFA03680C2B00D1FEE7FEE708B5104E104D16E029686B68AC68002204E051F8040B43F8040B0432A242F8D1E868002203E0002143F8041B043282420B
:40068000F9D11035013E002EE6D101F031FAFFF7FBFDFEE701000000181C000008B5104A104B1A60104A136843F40073136000230AE0032B03D80D4A52F8231000E00C49E6
:4006C0000C4A42F8231001332F2BF2D90A4B1A780A4B1A70074A0A4B1A60FFF7FFFE08BD0004FA050CED00E014ED00E000000000410600000080FF1FBC760040C080FF1FCE
:4007000008ED00E001BE704770B504460E46074B1D681F2802D90020FFF7F4FF04F01F04103455F8240045F8246070BD08ED00E038B504460D46072902D90020FFF7E2FF8E
:400740001F2C02D90020FFF7DDFF04F01F0000F1604000F564406D01EDB2057038BD00BF024B1B68C3F88C00704700BF08ED00E04001C0B2014B1870704700BF13E400E0B8
:400780004FF40022014B1A60704700BF00E100E04FF40022014B1A60704700BF80E100E010B50446FFF7F4FF2046FFF7D9FF0720FFF7DEFFFFF7E4FF10BD00BF084A13788D
:4007C00043F0040313701032137843F00403137002F66532137843F001031370704700BFA3430040014B1870704700BF1B4F0040014B1878704700BF1B4F0040014B18806E
:40080000704700BF1C4F0040014B1880704700BF1E4F004008B5164A137803F0010313700232137803F0FC031370124B1A7802F0CF021A701A7842F030021A701A7802F0FA
:40084000F0021A701A7842F00F021A700A4A137843F00103137040F2E730FFF7CFFF40F2E730FFF7D1FF0820FFF7BCFF08BD00BF184F0040234F0040194F004008B5054B7D
:400880001B7823B9FFF7C6FF0122024B1A70FFF795FF08BD5181FF1F054A137843F0080313701032137843F008031370704700BFA74300400F490B7803F0FC0200F003034A
:4008C00013430B7001280AD10B4B1B78DBB20B4A13700B4B1B78DBB2013213707047094B1B78DBB2054A1370074B1B78DBB2013213707047435800401301004936460040D9
:4009000017010049B3010049BB01004908B50020FFF7D0FF0B4B1A7802F0DF021A701A7802F0FB021A701A7842F008021A7003F527731A7802F0E7021A701A7842F00802B3
:400940001A7008BD4358004008B5054B1B7823B9FFF7DCFF0122024B1A70FFF79DFF08BD5281FF1F024B187800F00800704700BF965B0040054A137843F004031370103269
:40098000137843F004031370704700BFA74300400F490B7803F0FC0200F0030313430B7001280AD10B4B1B78DBB20B4A13700B4B1B78DBB2013213707047094B1B78DBB213
:4009C000054A1370074B1B78DBB201321370704742580040120100493446004016010049B1010049B901004908B50020FFF7D0FF0B4B1A7802F0DF021A701A7802F0FB0290
:400A00001A701A7842F008021A7003F295231A7802F0E7021A701A7842F008021A7008BD4258004008B5054B1B7823B9FFF7DCFF0122024B1A70FFF79DFF08BD5381FF1FA9
:400A4000024B187800F00400704700BF965B0040054A137843F0020313701032137843F002031370704700BFA74300400F490B7803F0FC0200F0030313430B7001280AD1AA
:400A80000B4B1B78DBB20B4A13700B4B1B78DBB2013213707047094B1B78DBB2054A1370074B1B78DBB201321370704741580040110100493246004015010049AF0100499C
:400AC000B701004908B50020FFF7D0FF0B4B1A7802F0DF021A701A7802F0FB021A701A7842F008021A7003F28E231A7802F0E7021A701A7842F008021A7008BD4158004018
:400B000008B5054B1B7823B9FFF7DCFF0122024B1A70FFF79DFF08BD5481FF1F024B187800F00200704700BF965B0040054A137843F0010313701032137843F00103137093
:400B4000704700BFA74300400F490B7803F0FC0200F0030313430B7001280AD10B4B1B78DBB20B4A13700B4B1B78DBB2013213707047094B1B78DBB2054A1370074B1B78E2
:400B8000DBB201321370704740580040100100493046004014010049AD010049B501004908B50020FFF7D0FF0B4B1A7802F0DF021A701A7802F0FB021A701A7842F008023F
:400BC0001A7003F287231A7802F0E7021A701A7842F008021A7008BD4058004008B5054B1B7823B9FFF7DCFF0122024B1A70FFF79DFF08BD5581FF1F024B187800F0010080
:400C0000704700BF965B0040024B1878C0F3C000704700BF01510040024B1878C0F38000704700BF01510040024B187800F00100704700BF01510040054A137843F00403B3
:400C400013701032137843F004031370704700BFA2430040084A137843F0010313701032137843F00103137002F64D32137843F001031370704700BFA3430040014B188072
:400C8000704700BF044F0040014B1880704700BF064F0040014B1870704700BF034F004008B5194A137843F0020313700232137803F08F0343F010031370144B1A7802F00A
:400CC000CF021A701A7842F030021A701A7802F0F0021A701A7842F00F021A706420FFF7CDFF5020FFF7D0FF0020FFF7D3FF084A137843F00103137002F65E32137843F07A
:400D00000103137008BD00BF004F00400B4F0040A343004008B5054B1B7823B9FFF7C0FF0122024B1A70FFF795FF08BD5681FF1F014B1888C0B27047064F0040084A137863
:400D400043F0020313701032137843F00203137002F65932137843F001031370704700BFA3430040014B1880704700BF104F0040014B1880704700BF124F0040014B187004
:400D8000704700BF0F4F004008B5194A137843F0020313700232137803F08F0343F010031370144B1A7802F0CF021A701A7842F030021A701A7802F0F0021A701A7842F02A
:400DC0000F021A706420FFF7CDFF5020FFF7D0FF0020FFF7D3FF084A137843F00203137002F66A32137843F00103137008BD00BF0C4F0040174F0040A343004008B5054B8C
:400E00001B7823B9FFF7C0FF0122024B1A70FFF795FF08BD5781FF1F014B1888C0B27047124F004008B50122054B1A6005490020FFF76AFC07210020FFF77AFC08BD00BFED
:400E400080E100E0210F000010B50124064B1C6000F014F9A0F5004000B2044B1B68044A1460184410BD00BF80E100E05C81FF1F00E100E038B505460124054B1C604FF4E1
:400E8000004000F0F5F8034B1D60034B1C6038BD80E100E05C81FF1F00E100E0024B187800F00F00704700BF6465004040F00700014B1870704700BF8465004008B50F209D
:400EC000FFF7F4FFFFF7EAFF00F0B2F9054A137843F01003137000F0AFF90122024B1A6008BD00BF9465004000E100E008B500F017F94FF4004000F0BBF80022064B1A601C
:400F0000064B1B7823B9FFF78DFF0122034B1A70FFF7D4FF08BD00BF5C81FF1F5881FF1F0D4B1B78DBB213F0010F06D00B490A6802F5FF427F320A6007E013F0020F04D0EC
:400F400006490A68A2F500420A6013F0040F02D00022024B1A607047646500405C81FF1F08B50222054B1A6005490120FFF7CCFB07210120FFF7DCFB08BD00BF80E100E02F
:400F800009100000024B187800F00F00704700BF6764004040F00700014B1870704700BF8764004008B50F20FFF7F4FFFFF7EAFF00F03EF9054A137843F01003137000F0A1
:400FC0003BF90222024B1A6008BD00BF9764004000E100E008B500F013F94FF4004000F0C1F80022064B1A60064B1B7823B9FFF7B7FF0122034B1A70FFF7D4FF08BD00BFCC
:401000006481FF1F6081FF1F0D4B1B78DBB213F0010F06D00B490A6802F5FF427F320A6007E013F0020F04D006490A68A2F500420A6013F0040F02D00022024B1A607047D9
:40104000676400406481FF1F024A137843F080031370704776650040014B1870704700BF86650040014B1878704700BF66650040014B1880704700BF086A0040024B1B78C2
:40108000024B188880B2704704650040886A0040014B188880B27047886A0040014B1880704700BF486A0040014B1880704700BF686A004008B501E0FFF7EAFFFFF7D2FF7C
:4010C00010F0400FF8D108BD08B5134B1A7802F0F8021A701A7802F0FC021A70FFF7EAFF4FF40040FFF7DAFF4FF40040FFF7C0FF0020FFF7B1FFFFF7B5FF4FF40040FFF792
:40110000D3FF00F095F8054A137843F01003137000F092F808BD00BF766500409665004008B5054B1B7823B9FFF7CEFF0122024B1A70FFF789FF08BD6881FF1F024A13780F
:4011400043F080031370704777640040014B1870704700BF82640040014B1878704700BF62640040014B1880704700BF00680040014B188880B2704780680040014B1880B9
:40118000704700BF40680040014B1880704700BF6068004008B501E0FFF7EAFFFFF7DCFF10F0400FF8D108BD08B5134B1A7802F0F8021A701A7802F0FC021A70FFF7EAFF36
:4011C0004FF40040FFF7DAFF4FF40040FFF7CAFF0020FFF7BBFFFFF7BFFF4FF40040FFF7D3FF00F025F8054A137843F01003137000F022F808BD00BF7764004092640040FD
:4012000008B5054B1B7823B9FFF7CEFF0122024B1A70FFF793FF08BD6981FF1F000000000230800803D000BF01380046FCD17047EFF3108072B6704780F31088704700BFFF
:4012400081F0004102E000BF83F0004330B54FEA41044FEA430594EA050F08BF90EA020F1FBF54EA000C55EA020C7FEA645C7FEA655C00F0E2804FEA5454D4EB5555B8BFC2
:401280006D420CDD2C4480EA020281EA030382EA000083EA010180EA020281EA0303362D88BF30BD11F0004F4FEA01314FF4801C4CEA113102D0404261EB410113F0004FB0
:4012C0004FEA03334CEA133302D0524263EB430394EA050F00F0A780A4F10104D5F1200E0DDB02FA0EFC22FA05F2801841F1000103FA0EF2801843FA05F359410EE0A5F11E
:4013000020050EF1200E012A03FA0EFC28BF4CF0020C43FA05F3C01851EBE37101F0004507D54FF0000EDCF1000C7EEB00006EEB0101B1F5801F1BD3B1F5001F0CD3490837
:401340005FEA30004FEA3C0C04F101044FEA445212F5800F80F09A80BCF1004F08BF5FEA500C50F1000041EB045141EA050130BD5FEA4C0C404141EB010111F4801FA4F1B9
:401380000104E9D191F0000F04BF01460020B1FA81F308BF2033A3F10B03B3F120020CDA0C3208DD02F1140CC2F10C0201FA0CF021FA02F10CE002F11402D8BFC2F1200CC6
:4013C00001FA02F120FA0CFCDCBF41EA0C019040E41AA2BF01EB0451294330BD6FEA04041F3C1CDA0C340EDC04F11404C4F1200220FA04F001FA02F340EA030021FA04F344
:4014000045EA030130BDC4F10C04C4F1200220FA02F001FA04F340EA0300294630BD21FA04F0294630BD94F0000F83F4801306BF81F480110134013D4EE77FEA645C18BFEE
:401440007FEA655C29D094EA050F08BF90EA020F05D054EA000C04BF1946104630BD91EA030F1EBF0021002030BD5FEA545C05D14000494128BF41F0004130BD14F58004DD
:401480003CBF01F5801130BD01F0004545F0FE4141F470014FF0000030BD7FEA645C1ABF194610467FEA655C1CBF0B46024650EA013406BF52EA033591EA030F41F4002161
:4014C00030BD00BF90F0000F04BF0021704730B54FF4806404F132044FF000054FF0000150E700BF90F0000F04BF0021704730B54FF4806404F1320410F0004548BF404236
:401500004FF000013EE700BF42004FEAE2014FEA31014FEA02701FBF12F07F4393F07F4F81F06051704792F0000F14BF93F07F4F704730B54FF4607401F0004521F0004157
:4015400020E700BF50EA010208BF704730B54FF000050AE050EA010208BF704730B511F0004502D5404261EB41014FF4806404F132045FEA915C3FF4DCAE4FF003025FEA38
:40158000DC0C18BF03325FEADC0C18BF033202EBDC02C2F1200300FA03FC20FA02F001FA03FE40EA0E0021FA02F11444C1E600BF70B54FF0FF0C4CF4E06C1CEA11541DBF12
:4015C0001CEA135594EA0C0F95EA0C0F00F0DEF82C4481EA030621EA4C5123EA4C5350EA013518BF52EA033541F4801143F4801338D0A0FB02CE4FF00005E1FB02E506F091
:401600000042E0FB03E54FF00006E1FB03569CF0000F18BF4EF0010EA4F1FF04B6F5007F64F5407404D25FEA4E0E6D4146EB060642EAC62141EA55514FEAC52040EA5E505D
:401640004FEACE2EB4F1FD0C88BFBCF5E06F1ED8BEF1004F08BF5FEA500E50F1000041EB045170BD06F0004646EA010140EA020081EA0301B4EB5C04C2BFD4EB0C0541EA6B
:40168000045170BD41F480114FF0000E013C00F3AB8014F1360FDEBF002001F0004170BDC4F10004203C35DA0C341BDC04F11404C4F1200500FA05F320FA04F001FA05F2A0
:4016C00040EA020001F0004221F0004110EBD37021FA04F642EB06015EEA430E08BF20EAD37070BDC4F10C04C4F1200500FA04F320FA05F001FA04F240EA020001F00041EA
:4017000010EBD37041F100015EEA430E08BF20EAD37070BDC4F1200500FA05F24EEA020E20FA04F301FA05F243EA020321FA04F001F0004121FA04F220EA020000EBD3708A
:401740005EEA430E08BF20EAD37070BD94F0000F0FD101F00046400041EB010111F4801F08BF013CF7D041EA060195F0000F18BF704703F00046520043EB030313F4801F4F
:4017800008BF013DF7D043EA0603704794EA0C0F0CEA135518BF95EA0C0F0CD050EA410618BF52EA4306D1D181EA030101F000414FF0000070BD50EA410606BF10461946A5
:4017C00052EA430619D094EA0C0F02D150EA013613D195EA0C0F05D152EA03361CBF104619460AD181EA030101F0004141F0FE4141F470014FF0000070BD41F0FE4141F4A2
:40180000780170BD70B54FF0FF0C4CF4E06C1CEA11541DBF1CEA135594EA0C0F95EA0C0F00F0A7F8A4EB050481EA030E52EA03354FEA013100F088804FEA03334FF0805522
:4018400045EA131343EA12634FEA022245EA111545EA10654FEA00260EF000419D4208BF964244F1FD0404F5407402D25B084FEA3202B61A65EB03055B084FEA32024FF43D
:4018800080104FF4002CB6EB020E75EB030E22BFB61A754640EA0C005B084FEA3202B6EB020E75EB030E22BFB61A754640EA5C005B084FEA3202B6EB020E75EB030E22BFAE
:4018C000B61A754640EA9C005B084FEA3202B6EB020E75EB030E22BFB61A754640EADC0055EA060E18D04FEA051545EA16754FEA06164FEAC30343EA52734FEAC2025FEA5F
:401900001C1CC0D111F4801F0BD141EA00014FF000004FF0004CB6E711F4801F04BF01430020B4F1FD0C88BFBCF5E06F3FF6AFAEB5EB030C04BFB6EB020C5FEA500C50F172
:40194000000041EB045170BD0EF0004E4EEA113114EB5C04C2BFD4EB0C0541EA045170BD41F480114FF0000E013C90E645EA060E8DE60CEA135594EA0C0F08BF95EA0C0FC2
:401980003FF43BAF94EA0C0F0AD150EA01347FF434AF95EA0C0F7FF425AF104619462CE795EA0C0F06D152EA03353FF4FDAE1046194622E750EA410618BF52EA43067FF457
:4019C000C5AE50EA41047FF40DAF52EA43057FF4EBAE12E74FF0FF3C06E000BF4FF0010C02E000BF4FF0010C4DF804CD4FEA410C7FEA6C5C4FEA430C18BF7FEA6C5C1BD09D
:401A000001B050EA410C0CBF52EA430C91EA030F02BF90EA020F0020704710F1000F91EA030F58BF994208BF90422CBFD8176FEAE37040F0010070474FEA410C7FEA6C5C1B
:401A400002D150EA013C07D14FEA430C7FEA6C5CD6D152EA033CD3D05DF8040B704700BF8446104662468C461946634600E000BF01B5FFF7B7FF002848BF10F1000F01BD4C
:401A80004DF808EDFFF7F4FF0CBF012000205DF808FB00BF4DF808EDFFF7EAFF34BF012000205DF808FB00BF4DF808EDFFF7E0FF94BF012000205DF808FB00BF4DF808ED88
:401AC000FFF7CEFF94BF012000205DF808FB00BF4DF808EDFFF7C4FF34BF012000205DF808FB00BF014B1868704700BF2C81FF1F0E4B70B51E460E4C0025E41AA410A54233
:401B000004D056F8253098470135F8E700F072F8084B094C1E46E41AA4100025A54204D056F8253098470135F8E770BD001C0000001C0000001C0000081C000010B5431EE0
:401B40000A44914204D011F8014B03F8014FF8E710BD03460244934202D003F8011BFAE77047000000000000004F00402400405100403000000001400010001401400008DD
:401B800000400140000A004C014000020050014020004300000000000000000000000000000000000000000000000000000000000000000000000000000000000000000017
:401BC00000000000000000000000000000000000000000000000000000000000000000000000000000000000000000000000000000000000F8B500BFF8BC08BC9E46704766
:401C00004D0000009D060000F8B500BFF8BC08BC9E46704729000000281C0000C880FF1F68000000100100000000000000000000941B0000B41B0000D41B0000000000007C
:401C4000000000000000000000000000921B0000000000000000000000000000000000000000000000000000000000000000000000000000000000000000000000000000B7
:401C8000000000000000000000000000CC80FF1F000000000000000000000000000000000000000000000000000000000000000000000000000000000000000000000000BA
:401CC00000000000000000000000000000000000000000000000000000000000000000000000000000000000000000000000000000000000000000000000000000000000E4
:401D000000000000000000000000000000000000000000000000000000000000000000000000000000000000000000000000000000000000000000000000000000000000A3
:401D40000000000000000000000000000000000000000000000000000000000000000000000000000000000000000000000000000000000000000000000000000000000063
:401D80000000000000000000000000000000000000000000000000000000000000000000000000000000000000000000000000000000000000000000000000000000000023
:020000040003F7
:0200000480007A
:40000000064F00400852004006640040046500406600014032010140500201404B0301405B0401404F0501404C0601404807014002090140020B0140010D0140040E01406D
:40004000030F0140641401404B1501404E1601405217014002190140044001400E410140194201401043014004440140064501400846014007470140134801401549014075
:40008000094C0140034D01400A5001400251014001200A1B0D20161B1910224B0009010A088009C0600361017813790522C724C725C77403826F870F26C77503840F866FD2
:4000C0000F0215041601170819041A021B081D081F04210423093002330134013502370C3B804052410349FF4AFF4BFF4DA04F0150185608580459045A045B045D905F0164
:400100006040628064406540668068406A806C406D206E80840C86018807890A8D108E0F8F2191209310940C950696029D109F20A210A40BA50CA604A90CAC08AD10AE010E
:40014000AF20B010B101B20FB50EB730B920BB80C052C103C53CC640C72EC83BC9FFCAFFCBFFCDAFCE07CF01D018D608D804D904DA04DB04DD90DF01E040E280E440E5401A
:40018000E680E840EA80EC40ED20EE8005080709080809200E20158016A0180819011E601F0821682280274929012D082F0A3128328037493A403C203E60400441044314E0
:4001C000471448014B404D014F4454025618584059205D80600862406680C0E0C226C4B0CA71CCDECE38D066D218D61CD81CE24002010301043805020606070108340A0A90
:400200000C0A0E3413041640183E1B021C261E182104240E30013104321E330334603F0140424502480149FF4AFF4BFF540F5804590A5A0A5B045C905D095F0560806240ED
:40024000634064406540668068806A806C806E8080028102820C830485028714880889048B028F019502970C9802AC02AE01B008B108B204B310B402B506B601B701B820B7
:40028000BB20BE11D608D804D904DB04DD90DF01001001010508074509200B080C900E201002114012021708181419021A011C201D081E041F0221112244260127102E019F
:4002C000320436023710380839223A403D023F084410450947104F0858805C205E0A5F406240660867047C087F048020814084809008910193049404950898029A189B49F6
:400300009D08A002A280A308A411A702A9A0B042C0FAC2E2C421CA80CCA2CECFD0A0D6F8D868DE60EA0401020301060507020B080C051108120218041A01200821042C08AA
:400340002F01300131083204330434083503360238203E053F0540124720482049FF4AFF4BFF5608580459085A085B045C905D995F01608062406340644065406680688095
:400380006A806C806E8084A3865C887F8C968D028E688F0194FE96019A019C0E9EF09F02A301A4C5A63AB103B2FFBE04C061C602C804C9FFCAFFCBFFD608D804D908DA08F4
:4003C000DB04DC90DD99DF01E080E240E340E440E540E680E880EA80EC80EE8002020320050C070908100A800C800D080E041002110117041A501BA01E202004235027401F
:4004000028022A012C4030803283330C374038063A103F80400647404E045001574058805C805D2063026408670269507B017F018004834085108E019121928495089740CB
:4004400098029A109B099C089D089F04A012A108A280A308A481A520A610A902AA04AB10B501C0E5C2EAC429CA89CC11CE17D01CD220D638D838DE18E44804FE060108A3F1
:40048000095D0A5C0B200D400F08100E116612F01310147F1778193B1A011CC51E3A2380289629662A682B08317833C0350736FF39203E405608580459045B045D905F0101
:4004C0008210840B85018604880C8A028B098D048E0F8F02900C9201940896019C209D029F04A102A260A304A502A704A807AF01B020B106B210B40FB508B640B701BB02C7
:40050000BE01BF40D280D40FD604D804D904DB04DF01008401200380040405200620080809010A010E2A0F4010041120124014081520184219281A011F4020822344242005
:400540002531261529082A802B802D202F4032403408361138203B443E203F40580459015A505C80620267027280912092D4950896029A109B099C909D04A010A280A388A0
:40058000A401A520A880A960B040B204B310C06FC2FDC44ACAABCCE8CE3ED61FD811EC04EE80EA80EC04E408EA10EAA4B802BE01D804DF011C408C40E24001030B0419024F
:4005C0001B012404270328062A012C0630013104320234043502370138283E103F504052410649FF4AFF4BFF4DA04F015018540F5604580459045A045B045F016040628016
:4006000064406540668068406A806C406D206E8084C1861288B789FD8A408B028C848E10913093C994C095CF9624973099739A079D949F60A001A2F2A477A70FA99EAA08F9
:40064000AB60B2F0B3FFB40FBF04C056C102C50CC624C73EC83DC9FFCAFFCBFFCDAFCE07CF01D018D804D904DA04DB04DF01E040E280E440E540E680E840EA80EC40ED2041
:40068000EE800410062007010D28100211301220130814801718180419081A481D3C1F102251271029082E202F1831103480350436A0370138023A103C30400445204A013B
:4006C0004B604E044F4454025510564A57205AA15B0863806E206F028340841086118B0290029510964297049A109B099D049E4AA010A281A308A720A880B502B710C0E0D1
:40070000C260C477CA62CCF4CE25D024D23CD60FD801E680E840EE4000010D020E050F011108140817021A0A1B0127042D042E0830043202330334013508360837043E5097
:400740003F5040324602480449FF4AFF4BFF5280540F580459085A085B045C905D095F0560806240634064406540668068806A806C806E8084FD8602870788CF89F78A3078
:400780008C948E60909E92609430957796C999549BA09DA19F52A60FA708A873A9C0AB34AD31AFC2B2FFB30FB5F0BE04D804D904DB04DF0100840120030205010602080855
:4007C00009010AA00E241014112014101508174019081D011E2A2004211424082608271229282B022E402F203004325034203502360839283F804420471057405A085B08C2
:400800005C405D105E085F0266086704680A77407E047F0188028C0C904292049302940495089602982899209A109B099C909D049E40A050A111A280A308A804A901AA0215
:40084000B020C097C26CC486CA5ECCEECE16D060D6F0D860DE30E690E010EA80308037208D10CC305004540257405980841099109F20A480A601AA01D4E0D620E440EC80A1
:40088000194046025704611080048340854086028E40940899109C109D809F20A480A601A740A802C640D020D440D840E220E680EA201B041E4061106510938096409910B7
:4008C0009C109D809F20A480A601A704B340C630D8C014402802C404CA0811029F08AB08B042C408EA050110572087209F08B501C002D402EA0800029F08A304AB04B11071
:40090000C008EA012B08534057205A405F808B028F80924093809C109D80A304A480A601AB20CA10D4E0D620EA8008100E0270027F028080872088029C10A302A480A60171
:40094000A720AB08B580B704C2C0DC80DE20E220E610EC80630864808C809F08A304B001D803E008EA0113089F08C40800010101080109010A010B01100111011A011B01B0
:40098000000F04C0000F0F000F0000006007070007000000001F1F001F00000000CBCB00C00000000007070000000000C000000000000F002F001C010000000000000000E6
:4009C00000000000000000000000000000000000000000000000000000000000000000000000000000000000000000000000000000000000000000000000000000000000F7
:400A000000000000000000000000000000000000000000000000000000000000000000000000000000000000000000000000000000000000000000000000000000000000B6
:400A40000000000000000000000000000000000000000000000000000000000000000000000000000000000000000000000000000000000000000000000000000000000076
:400A80000000000000000000000000000000000000000000000000000000000000000000000000000000000000000000000000000000000000000000000000000000000036
:0200000490006A
:0400000000004005B7
:0200000490105A
:04000000BC90ACAF55
:0200000490303A
:0200000099B0B5
:0200000490402A
:4000000000000000000000000000000000000000000000000000000000000000000000000000000000000000000000000000000000000000000000000000000000000000C0
:400040000000000000000000000000000000000000000000000000000000000000000000000000000000000000000000000000000000000000000000000000000000000080
:400080000000000000000000000000000000000000000000000000000000000000000000000000000000000000000000000000000000000000000000000000000000000040
:4000C0000000000000000000000000000000000000000000000000000000000000000000000000000000000000000000000000000000000000000000000000000000000000
:0200000490501A
:0C00000000012E16106900012E23AA1921
:00000001FF