:4000000000800020110000008D0B00008D0B000008B5044B1A6803F53F5302331A6000F0D5FD00BFFA46004010B5054C237833B9044B13B10448AFF300800123237010BD75
:40004000A885FF1F00000000182A0000084B10B51BB108490848AFF300800848036803B910BD074B002BFBD0BDE81040184700BF00000000AC85FF1F182A0000C880FF1FB6
:400080000000000008B501F075F8164A13781844107000F025FF144A13781844107000F08DFF124A13781844107000F0F5FF104A1378184410700F4B1B68082B0AD1002393
:4000C000084A1370084A1370084A1370084A1370084A1360074A13680133136000F046FE08BD00BF4686FF1F4486FF1F4786FF1F4586FF1FC485FF1F08B5322001F082F835
:40010000322001F0F3F808BD08B5442001F07AF8212001F0EBF801F03DF80028FBD001F041F80028FBD101F03DF80028F7D10022044B1A71412001F065F8422001F0D6F81A
:4001400008BD00BFC485FF1F08B5212001F05AF8442001F0CBF801F015F80028FBD001F021F80028FBD101F01DF80028F7D10022044B1A71412001F045F8422001F0B6F8CA
:4001800008BD00BFC485FF1F08B51E2001F03AF81E2001F0ABF808BD70B50646002001F027F924E01E4B1B784BB11E4A127832B901F0F0F80130C0B201F098F817E04BB92C
:4001C000184A127832B101F071F80130C0B201F019F80CE0134A12783AB933B9442001F011F8452001F082F801E0FFF7CDFF01F0E9F801F033FC04460D46304601F02EFC8E
:400200000022094B01F090FC02460B462046294601F0FCFE0028C5D1FFF76EFF70BD00BF4686FF1F4486FF1F0000254008B5134B1B784BB1124A127832B901F0ABF80130EE
:40024000C0B201F053F808BD4BB90D4A127832B101F02CF80130C0B200F0D4FF08BD084A12783AB933B9442000F0CCFF452001F03DF808BDFFF788FF08BD00BF4686FF1FEE
:400280004486FF1F30B583B062B600F0B5FD2F4800F044FD00F060FF00F014FE00F080FE00F0ECFE00F086FF00F0F2FF01F064F8642000F0A1FF642001F012F8322000F0CB
:4002C000A1FF322001F012F801F0CEF801F040F9012307221946184600F066F800F084F902230093072301221146104600F0B2F9002425E0164D55F83400FFF74DFF05EBDF
:40030000C4052B79522B09D101E0FFF78FFF00F039FF0028F9D1FFF717FF10E04C2B09D101E0FFF783FF00F035FF0028F9D1FFF7EBFE04E0452B02D1FFF7DEFE02E00134CF
:400340000A2CD7DDFFF7D8FEFEE700BF85000000F085FF1F08B5801A0028B8BF4042CB1A002BB8BF5B42184401F078FB08BD00BF12280ED800290EDB0E290EDC01EBC10328
:4003800001EB43010144074B53F821303BB1002070470020704700207047002070470120704700BFCC80FF1F2DE9F04FADF63C1D05460E46904602921F46039340F2744452
:4003C000224600210DF2C44001F087FE2246002114A801F082FE0CAC0C950D9600220023CDE90E233B46424631462846FFF7B2FFC4E904010023A361CDF8C444E5E0D5E95F
:400400000423D5E9020101F0DDF906460F46D4E90423D4E9020101F0D5F902460B463046394601F0F3FD08B1C1462C4608F1010803E04FF001084FF000090DF2C44353F8A2
:400440002850002DDBD1002243F829202368029A9A4205D16368039A9A4201D12046BAE004AE5F4D95E80F0086E80F0008AE103595E80F0086E80F004FF0000A97E02268E1
:4004800004AB53F82A3002EB0308626808AB53F82A3002EB030949464046FFF769FF002800F0838000224F4BD4E9020101F08AF906460F4608EBC80308EB43034B4414AA72
:4004C00052F82330DBB1D3E9022301F0B3FD00286BD1002314E02A6890450ED16A6891450BD1D5E902233046394601F08FFD78B1C5E90267AC6101230BE0013300E0002324
:400500000DF2C44252F82350002DE4D1002300E00123002B49D1202001F0CCFD8346C0F80080C0F80490C0E90267039B029A49464046FFF70FFF02460B46CDE90023CBE9D9
:400540000423CBF81840002500E001350DF2C44353F8251009B3D1E90423D1E9020101F031F980468946DDE900233046394601F029F902460B464046494601F047FD002872
:40058000E3D14FF48E730AE05A1E0DF2C44151F8220041F82300134601E04FF48E739D42F2DB0DF2C44343F825B00AF1010ABAF1030F7FF764AF2368626803EBC30103EB95
:4005C0004103134414AA42F82340DDF8C444002C7FF42FAF00200DF63C1DBDE8F08F00BF1C2A00000000F03F70B5B2B078B9164801F080FE25E0186832A901EBC20141F80A
:40060000C80C586841F8C40C01329B6901E003460022002BEFD1531E00210EE032A800EBC30454F8C86C094800EBC1056E6054F8C44C40F83140013B0131002BEEDA044B9E
:400640001A6032B070BD00BF3C2A00004886FF1FCC85FF1F2DE9F0419DF8187000244FF0FF3CA646F5E07D4D55F8346005EBC4056D68904218D1994216D10EF101030CF1F8
:40068000010C012F01D0032F03D1754A42F83C3002E0734A42F83C30714B03EBCC0C45238CF80430BDE8F081032F00F2D180DFE807F002376A9DB04206DDA94204D10EF1BD
:4006C000010E29463046C3E0B04212D1A94210DA0EF101010CF1010C614840F83C1000EBCC0052210171294630464FF0000E0127AEE0B04240F0AC80A94240F3A9800EF169
:4007000001010CF1010C564840F83C1000EBCC004C210171294630464FF0000E032797E0B04206D1A94204DA0EF1010E294630468EE0B04212DAA94210D10EF101010CF187
:40074000010C474840F83C1000EBCC0052210171294630464FF0000E022779E0B04277DDA94275D10EF101010CF1010C3C4840F83C1000EBCC004C210171294630464FF0C5
:40078000000E774664E0B04206DAA94204D10EF1010E294630465BE0B04212D1A94210DD0EF101010CF1010C2D4840F83C1000EBCC0052210171294630464FF0000E0327C1
:4007C00046E0B04244D1A94242DA0EF101010CF1010C234840F83C1000EBCC004C210171294630464FF0000E012731E0B04206D1A94204DD0EF1010E2946304628E0B04248
:4008000012DDA94210D10EF101010CF1010C144840F83C1000EBCC0052210171294630464FF0000E774613E0B04211DAA9420FD10EF101010CF1010C094840F83C1000EB21
:40084000CC004C210171294630464FF0000E02270134132C7FF707AFBDE8F0814886FF1FF085FF1FFEE700BFF0B40022174611E050F82760F3B226F0FF0608E001EB4205DB
:4008800011F812406D78A5550132013BDBB2002BF4D10137232FEBD9F0BC7047164B1B78DBB203F00701154A11701B09013213700F22134B1A70022203F22F731A7010229B
:4008C00003F515731A7040230E4A1370802105321170033213700532137003321370202105321170033213705022074B1A704422A3F2E2231A707047CF0100496E580040CE
:400900003D510040C35A0040585B004008B50A46002101F0E2FB08BD08B501F0D3FB08BD38B50322314B1A801823314A13702F2230490A801C200231087002310A802E4AC6
:40094000137004222D492E48FFF7E6FF06222D4B1A705222A3F580731A702B4B1B78DBB22A4A13704FF4E262294B1A8041F25122023B1A80002419250CE0264B1B7803F070
:40098000010343EA440404F003044FF4F07000F003FF013D0DB1032CEFD115B90320FFF761FF1D4A4FF4807313800723137000231A490B70482002310870137005321370CE
:4009C0000222174B1A7004220A331A70154A137843F007031370013A137843F001031370013A137843F08003137038BD8040004082400040844000408A400040B4090048C7
:400A000000410040004300400F010049A14600402242004025420040044000400640004001400040A243004038B572B6404A137843F00403137000240CE03E4D6300191920
:400A40004A0011462A44084691882858FFF75EFF0134E4B2062CF0D937494FF09040FFF703FF0322354B1A8040F2031202331A8040F2032202331A8040F2033202331A802F
:400A80002F4A03F52A430A331A60A2F50032A2F5007203F5A0531A602A4A137843F0020313701032137843F002031370264C237843F040032370A2F58632513A137843F07A
:400AC00010031370082221492148FFF725FF082220492148FFF720FF082220492048FFF71BFF08221F492048FFF716FF08221F491F48FFF711FF08221E491F48FFF70CFF30
:400B00001E4A137843F0080313701D4D61232B70FFF706FFC1232B7001221A4B1A70FFF7BDFE0E2221461848FFF7F6FE38BD00BFE84600404C2A000090000048485800400A
:400B4000040A0A4403500140A043004084090048025100408C090048C251004094090048F25100409C09004812510040A409004822510040AC0900483251004022430040C5
:400B80000048004004000840B043004008B501F065FA03680C2B00D1FEE7FEE708B5094B1A681044084BC31A802B02DC054B186005E001F053FA0C2303604FF0FF32104601
:400BC00008BD00BF4085FF1FE086FF1F08B5104E104D16E029686B68AC68002204E051F8040B43F8040B0432A242F8D1E868002203E0002143F8041B04328242F9D11035C0
:400C0000013E002EE6D101F02FFAFFF73BFBFEE701000000002B000008B5104A104B1A60104A136843F40073136000230AE0032B03D80D4A52F8231000E00C490C4A42F8AC
:400C4000231001332F2BF2D90A4B1A780A4B1A70074A0A4B1A60FFF7E7FE08BD0004FA050CED00E014ED00E0000000008D0B00000080FF1FBC760040C080FF1F08ED00E0CA
:400C800001BE704770B504460E46074B1D681F2802D90020FFF7F4FF04F01F04103455F8240045F8246070BD08ED00E038B504460D46072902D90020FFF7E2FF1F2C02D9B8
:400CC0000020FFF7DDFF04F01F0000F1604000F564406D01EDB2057038BD00BF024B1B68C3F88C00704700BF08ED00E04001C0B2014B1870704700BF13E400E04FF40022F4
:400D0000014B1A60704700BF00E100E04FF40022014B1A60704700BF80E100E010B50446FFF7F4FF2046FFF7D9FF0720FFF7DEFFFFF7E4FF10BD00BF084A137843F0040332
:400D400013701032137843F00403137002F66532137843F001031370704700BFA3430040014B1870704700BF1B4F0040014B1878704700BF1B4F0040014B1880704700BFAC
:400D80001C4F0040014B1880704700BF1E4F004008B5164A137803F0010313700232137803F0FC031370124B1A7802F0CF021A701A7842F030021A701A7802F0F0021A706F
:400DC0001A7842F00F021A700A4A137843F00103137040F2E730FFF7CFFF40F2E730FFF7D1FF0820FFF7BCFF08BD00BF184F0040234F0040194F004008B5054B1B7823B905
:400E0000FFF7C6FF0122024B1A70FFF795FF08BDD085FF1F054A137843F0080313701032137843F008031370704700BFA74300400F490B7803F0FC0200F0030313430B70DF
:400E400001280AD10B4B1B78DBB20B4A13700B4B1B78DBB2013213707047094B1B78DBB2054A1370074B1B78DBB201321370704743580040130100493646004017010049C3
:400E8000B3010049BB01004908B50020FFF7D0FF0B4B1A7802F0DF021A701A7802F0FB021A701A7842F008021A7003F527731A7802F0E7021A701A7842F008021A7008BD40
:400EC0004358004008B5054B1B7823B9FFF7DCFF0122024B1A70FFF79DFF08BDD185FF1F024B187800F00800704700BF965B0040054A137843F0040313701032137843F0F2
:400F000004031370704700BFA74300400F490B7803F0FC0200F0030313430B7001280AD10B4B1B78DBB20B4A13700B4B1B78DBB2013213707047094B1B78DBB2054A137079
:400F4000074B1B78DBB201321370704742580040120100493446004016010049B1010049B901004908B50020FFF7D0FF0B4B1A7802F0DF021A701A7802F0FB021A701A78C0
:400F800042F008021A7003F295231A7802F0E7021A701A7842F008021A7008BD4258004008B5054B1B7823B9FFF7DCFF0122024B1A70FFF79DFF08BDD285FF1F024B1878E0
:400FC00000F00400704700BF965B0040054A137843F0020313701032137843F002031370704700BFA74300400F490B7803F0FC0200F0030313430B7001280AD10B4B1B7819
:40100000DBB20B4A13700B4B1B78DBB2013213707047094B1B78DBB2054A1370074B1B78DBB201321370704741580040110100493246004015010049AF010049B7010049FE
:4010400008B50020FFF7D0FF0B4B1A7802F0DF021A701A7802F0FB021A701A7842F008021A7003F28E231A7802F0E7021A701A7842F008021A7008BD4158004008B5054B86
:401080001B7823B9FFF7DCFF0122024B1A70FFF79DFF08BDD385FF1F024B187800F00200704700BF965B0040054A137843F0010313701032137843F001031370704700BF22
:4010C000A74300400F490B7803F0FC0200F0030313430B7001280AD10B4B1B78DBB20B4A13700B4B1B78DBB2013213707047094B1B78DBB2054A1370074B1B78DBB2013213
:401100001370704740580040100100493046004014010049AD010049B501004908B50020FFF7D0FF0B4B1A7802F0DF021A701A7802F0FB021A701A7842F008021A7003F2FA
:4011400087231A7802F0E7021A701A7842F008021A7008BD4058004008B5054B1B7823B9FFF7DCFF0122024B1A70FFF79DFF08BDD485FF1F024B187800F00100704700BF80
:40118000965B0040024B1878C0F3C000704700BF01510040024B1878C0F38000704700BF01510040024B187800F00100704700BF01510040054A137843F0040313701032DF
:4011C000137843F004031370704700BFA2430040084A137843F0010313701032137843F00103137002F64D32137843F001031370704700BFA3430040014B1880704700BF3C
:40120000044F0040014B1880704700BF064F0040014B1870704700BF034F004008B5194A137843F0020313700232137803F08F0343F010031370144B1A7802F0CF021A709F
:401240001A7842F030021A701A7802F0F0021A701A7842F00F021A706420FFF7CDFF5020FFF7D0FF0020FFF7D3FF084A137843F00103137002F65E32137843F001031370C8
:4012800008BD00BF004F00400B4F0040A343004008B5054B1B7823B9FFF7C0FF0122024B1A70FFF795FF08BDD585FF1F014B1888C0B27047064F0040084A137843F00203AA
:4012C00013701032137843F00203137002F65932137843F001031370704700BFA3430040014B1880704700BF104F0040014B1880704700BF124F0040014B1870704700BF41
:401300000F4F004008B5194A137843F0020313700232137803F08F0343F010031370144B1A7802F0CF021A701A7842F030021A701A7802F0F0021A701A7842F00F021A707F
:401340006420FFF7CDFF5020FFF7D0FF0020FFF7D3FF084A137843F00203137002F66A32137843F00103137008BD00BF0C4F0040174F0040A343004008B5054B1B7823B932
:40138000FFF7C0FF0122024B1A70FFF795FF08BDD685FF1F014B1888C0B27047124F004008B50122054B1A6005490020FFF76AFC07210020FFF77AFC08BD00BF80E100E013
:4013C0009D14000010B50124064B1C6000F014F9A0F5004000B2044B1B68044A1460184410BD00BF80E100E0D885FF1F00E100E038B505460124054B1C604FF4004000F06C
:40140000F5F8034B1D60034B1C6038BD80E100E0D885FF1F00E100E0024B187800F00F00704700BF6465004040F00700014B1870704700BF8465004008B50F20FFF7F4FFDE
:40144000FFF7EAFF00F0B0F9054A137843F01003137000F0ADF90122024B1A6008BD00BF9465004000E100E008B500F017F94FF4004000F0BBF80022064B1A60064B1B789F
:4014800023B9FFF78DFF0122034B1A70FFF7D4FF08BD00BFD885FF1FD785FF1F0D4B1B78DBB213F0010F06D00B490A6802F5FF427F320A6007E013F0020F04D006490A6887
:4014C000A2F500420A6013F0040F02D00022024B1A60704764650040D885FF1F08B50222054B1A6005490120FFF7CCFB07210120FFF7DCFB08BD00BF80E100E08515000051
:40150000024B187800F00F00704700BF6764004040F00700014B1870704700BF8764004008B50F20FFF7F4FFFFF7EAFF00F03CF9054A137843F01003137000F039F90222E0
:40154000024B1A6008BD00BF9764004000E100E008B500F013F94FF4004000F0C1F80022064B1A60064B1B7823B9FFF7B7FF0122034B1A70FFF7D4FF08BD00BFE085FF1F1B
:40158000DC85FF1F0D4B1B78DBB213F0010F06D00B490A6802F5FF427F320A6007E013F0020F04D006490A68A2F500420A6013F0040F02D00022024B1A60704767640040CC
:4015C000E085FF1F024A137843F080031370704776650040014B1870704700BF86650040014B1878704700BF66650040014B1880704700BF086A0040024B1B78024B1888DB
:4016000080B2704704650040886A0040014B188880B27047886A0040014B1880704700BF486A0040014B1880704700BF686A004008B501E0FFF7EAFFFFF7D2FF10F0400F94
:40164000F8D108BD08B5134B1A7802F0F8021A701A7802F0FC021A70FFF7EAFF4FF40040FFF7DAFF4FF40040FFF7C0FF0020FFF7B1FFFFF7B5FF4FF40040FFF7D3FF00F099
:4016800093F8054A137843F01003137000F090F808BD00BF766500409665004008B5054B1B7823B9FFF7CEFF0122024B1A70FFF789FF08BDE485FF1F024A137843F080031A
:4016C0001370704777640040014B1870704700BF82640040014B1878704700BF62640040014B1880704700BF00680040014B188880B2704780680040014B1880704700BF74
:4017000040680040014B1880704700BF6068004008B501E0FFF7EAFFFFF7DCFF10F0400FF8D108BD08B5134B1A7802F0F8021A701A7802F0FC021A70FFF7EAFF4FF40040A3
:40174000FFF7DAFF4FF40040FFF7CAFF0020FFF7BBFFFFF7BFFF4FF40040FFF7D3FF00F023F8054A137843F01003137000F020F808BD00BF776400409264004008B5054BF1
:401780001B7823B9FFF7CEFF0122024B1A70FFF793FF08BDE585FF1F0230800803D000BF01380046FCD17047EFF3108072B6704780F31088704700BF81F0004102E000BFB4
:4017C00083F0004330B54FEA41044FEA430594EA050F08BF90EA020F1FBF54EA000C55EA020C7FEA645C7FEA655C00F0E2804FEA5454D4EB5555B8BF6D420CDD2C4480EA1E
:40180000020281EA030382EA000083EA010180EA020281EA0303362D88BF30BD11F0004F4FEA01314FF4801C4CEA113102D0404261EB410113F0004F4FEA03334CEA1333B1
:4018400002D0524263EB430394EA050F00F0A780A4F10104D5F1200E0DDB02FA0EFC22FA05F2801841F1000103FA0EF2801843FA05F359410EE0A5F120050EF1200E012A06
:4018800003FA0EFC28BF4CF0020C43FA05F3C01851EBE37101F0004507D54FF0000EDCF1000C7EEB00006EEB0101B1F5801F1BD3B1F5001F0CD349085FEA30004FEA3C0C35
:4018C00004F101044FEA445212F5800F80F09A80BCF1004F08BF5FEA500C50F1000041EB045141EA050130BD5FEA4C0C404141EB010111F4801FA4F10104E9D191F0000FDF
:4019000004BF01460020B1FA81F308BF2033A3F10B03B3F120020CDA0C3208DD02F1140CC2F10C0201FA0CF021FA02F10CE002F11402D8BFC2F1200C01FA02F120FA0CFC7F
:40194000DCBF41EA0C019040E41AA2BF01EB0451294330BD6FEA04041F3C1CDA0C340EDC04F11404C4F1200220FA04F001FA02F340EA030021FA04F345EA030130BDC4F1F9
:401980000C04C4F1200220FA02F001FA04F340EA0300294630BD21FA04F0294630BD94F0000F83F4801306BF81F480110134013D4EE77FEA645C18BF7FEA655C29D094EA9D
:4019C000050F08BF90EA020F05D054EA000C04BF1946104630BD91EA030F1EBF0021002030BD5FEA545C05D14000494128BF41F0004130BD14F580043CBF01F5801130BD8A
:401A000001F0004545F0FE4141F470014FF0000030BD7FEA645C1ABF194610467FEA655C1CBF0B46024650EA013406BF52EA033591EA030F41F4002130BD00BF90F0000F0F
:401A400004BF0021704730B54FF4806404F132044FF000054FF0000150E700BF90F0000F04BF0021704730B54FF4806404F1320410F0004548BF40424FF000013EE700BFC7
:401A800042004FEAE2014FEA31014FEA02701FBF12F07F4393F07F4F81F06051704792F0000F14BF93F07F4F704730B54FF4607401F0004521F0004120E700BF50EA0102F3
:401AC00008BF704730B54FF000050AE050EA010208BF704730B511F0004502D5404261EB41014FF4806404F132045FEA915C3FF4DCAE4FF003025FEADC0C18BF03325FEA79
:401B0000DC0C18BF033202EBDC02C2F1200300FA03FC20FA02F001FA03FE40EA0E0021FA02F11444C1E600BF70B54FF0FF0C4CF4E06C1CEA11541DBF1CEA135594EA0C0FC2
:401B400095EA0C0F00F0DEF82C4481EA030621EA4C5123EA4C5350EA013518BF52EA033541F4801143F4801338D0A0FB02CE4FF00005E1FB02E506F00042E0FB03E54FF0CE
:401B80000006E1FB03569CF0000F18BF4EF0010EA4F1FF04B6F5007F64F5407404D25FEA4E0E6D4146EB060642EAC62141EA55514FEAC52040EA5E504FEACE2EB4F1FD0C39
:401BC00088BFBCF5E06F1ED8BEF1004F08BF5FEA500E50F1000041EB045170BD06F0004646EA010140EA020081EA0301B4EB5C04C2BFD4EB0C0541EA045170BD41F4801181
:401C00004FF0000E013C00F3AB8014F1360FDEBF002001F0004170BDC4F10004203C35DA0C341BDC04F11404C4F1200500FA05F320FA04F001FA05F240EA020001F0004203
:401C400021F0004110EBD37021FA04F642EB06015EEA430E08BF20EAD37070BDC4F10C04C4F1200500FA04F320FA05F001FA04F240EA020001F0004110EBD37041F1000152
:401C80005EEA430E08BF20EAD37070BDC4F1200500FA05F24EEA020E20FA04F301FA05F243EA020321FA04F001F0004121FA04F220EA020000EBD3705EEA430E08BF20EA0C
:401CC000D37070BD94F0000F0FD101F00046400041EB010111F4801F08BF013CF7D041EA060195F0000F18BF704703F00046520043EB030313F4801F08BF013DF7D043EA3B
:401D00000603704794EA0C0F0CEA135518BF95EA0C0F0CD050EA410618BF52EA4306D1D181EA030101F000414FF0000070BD50EA410606BF1046194652EA430619D094EA2C
:401D40000C0F02D150EA013613D195EA0C0F05D152EA03361CBF104619460AD181EA030101F0004141F0FE4141F470014FF0000070BD41F0FE4141F4780170BD70B54FF0FE
:401D8000FF0C4CF4E06C1CEA11541DBF1CEA135594EA0C0F95EA0C0F00F0A7F8A4EB050481EA030E52EA03354FEA013100F088804FEA03334FF0805545EA131343EA1263B0
:401DC0004FEA022245EA111545EA10654FEA00260EF000419D4208BF964244F1FD0404F5407402D25B084FEA3202B61A65EB03055B084FEA32024FF480104FF4002CB6EB0F
:401E0000020E75EB030E22BFB61A754640EA0C005B084FEA3202B6EB020E75EB030E22BFB61A754640EA5C005B084FEA3202B6EB020E75EB030E22BFB61A754640EA9C0077
:401E40005B084FEA3202B6EB020E75EB030E22BFB61A754640EADC0055EA060E18D04FEA051545EA16754FEA06164FEAC30343EA52734FEAC2025FEA1C1CC0D111F4801FBD
:401E80000BD141EA00014FF000004FF0004CB6E711F4801F04BF01430020B4F1FD0C88BFBCF5E06F3FF6AFAEB5EB030C04BFB6EB020C5FEA500C50F1000041EB045170BDAC
:401EC0000EF0004E4EEA113114EB5C04C2BFD4EB0C0541EA045170BD41F480114FF0000E013C90E645EA060E8DE60CEA135594EA0C0F08BF95EA0C0F3FF43BAF94EA0C0F35
:401F00000AD150EA01347FF434AF95EA0C0F7FF425AF104619462CE795EA0C0F06D152EA03353FF4FDAE1046194622E750EA410618BF52EA43067FF4C5AE50EA41047FF422
:401F40000DAF52EA43057FF4EBAE12E74FF0FF3C06E000BF4FF0010C02E000BF4FF0010C4DF804CD4FEA410C7FEA6C5C4FEA430C18BF7FEA6C5C1BD001B050EA410C0CBF79
:401F800052EA430C91EA030F02BF90EA020F0020704710F1000F91EA030F58BF994208BF90422CBFD8176FEAE37040F0010070474FEA410C7FEA6C5C02D150EA013C07D177
:401FC0004FEA430C7FEA6C5CD6D152EA033CD3D05DF8040B704700BF8446104662468C461946634600E000BF01B5FFF7B7FF002848BF10F1000F01BD4DF808EDFFF7F4FFC6
:402000000CBF012000205DF808FB00BF4DF808EDFFF7EAFF34BF012000205DF808FB00BF4DF808EDFFF7E0FF94BF012000205DF808FB00BF4DF808EDFFF7CEFF94BF0120EE
:4020400000205DF808FB00BF4DF808EDFFF7C4FF34BF012000205DF808FB00BF014B1868704700BFA485FF1F0E4B70B51E460E4C0025E41AA410A54204D056F82530984712
:402080000135F8E700F02AFD084B094C1E46E41AA4100025A54204D056F8253098470135F8E770BDE82A0000E82A0000E82A0000F02A0000024B0146186800F063B800BF64
:4020C000A485FF1F10B5431E0A44914204D011F8014B03F8014FF8E710BD03460244934202D003F8011BFAE77047000038B50546002944D051F8043C0C1F002BB8BFE41886
:4021000000F0ACFB1E4A1368114613B96360146030E0A3420DD92268A018834201BF18685B681218226063600C6023E0A24203D813465A68002AF9D118681918A1420BD1CA
:402140002168014458188242196013D110685268014419605A600DE002D90C232B6009E021686018824201BF106852680918216062605C602846BDE8384000F070BB38BD79
:40218000EC85FF1F70B5CD1C25F0030508350C2D38BF0C25002D064601DBA94202D90C23336046E000F05AFB234B1C681A462146A1B10B685B1B0ED40B2B03D90B60CC1848
:4021C000CD501EE08C420BBF63684B681360636018BF0C4615E00C464968E9E7174C23681BB9304600F08EF820602946304600F089F8431C18D0C41C24F00304A0420DD101
:402200002560304600F02BFB04F10B00231D20F00700C31A0ED05A42E25070BD211A304600F070F80130EBD10C233360304600F016FB002070BD00BFEC85FF1FE885FF1F2B
:4022400070B50E46054618B183690BB900F01CFAAB69AC6813B9284600F016FA224B9C4201D16C6808E0214B9C4201D1AC6803E01F4B9C4208BFEC68A3891B0701D52369BA
:402280003BB92146284600F0A1F810B14FF0FF3070BD013EA36816F8011F013BA36091B1002B04DAA269934206DB0A2904D023685A1C22601970EDE72246284600F032F8D6
:4022C0000130E7D1E2E7002B08DA22460A21284600F028F80130D9D00A2070BD23680A205A1C2260187070BD7C2A00009C2A0000BC2A0000024B01461868FFF7A1BF00BF00
:40230000A485FF1F38B5064C0023054608462360FEF744FC431C02D1236803B12B6038BDD886FF1FF8B50F461446064618B183690BB900F0A9F9224B9C4201D1746808E0A2
:40234000204B9C4201D1B46803E01F4B9C4208BFF468A369A360A3891A0709D523693BB123682069FDB2181A636998420FDB08E02146304600F02AF80028F1D04FF0FF3073
:40238000F8BD2146304600F015F90028F6D1A368013BA36023685A1C22601F706269431C934204D0A389DB0707D50A2D05D12146304600F0FFF80028E0D12846F8BD00BFF9
:4023C0007C2A00009C2A0000BC2A0000324B70B51D6806460C4625B1AB6913B9284600F053F92E4B9C4201D16C6808E02C4B9C4201D1AC6803E02B4B9C4208BFEC68B4F947
:402400000C309AB215071DD4D00602D4092232603AE0510712D5616B41B104F14403994202D03046FFF762FE00236363A38923F02403A3810023636023692360A38943F00B
:402440000803A38123694BB9A38903F42073B3F5007F03D02146304600F0C4F9A28912F0010305D00023A36063695B42A36103E0920758BF6369A36023695BB9B4F90C30DF
:4024800003F0800080B230B143F04003A3814FF0FF3070BD002070BDA485FF1F7C2A00009C2A0000BC2A00008A892DE9F041054610070C4659D44B68002B02DC0B6C002BE2
:4024C00017DDE66AAEB102F48052002392B22F682B600AB1606D15E0216A01232846B047411C0FD12B686BB11D2B01D0162B03D12F600020BDE8F081A38943F04003A381B2
:40250000BDE8F081A3895A0705D56368C01A636B0BB1236CC01A00230246E66A216A2846B047431CA38906D129681D2939D8204ACA40D60735D5002262602269D904226068
:4025400004D5421C01D12B6803B96065616B2F600029CED004F14403994202D02846FFF7C5FD00206063BDE8F0810F69002FC0D093070E680CBF4B690023C7EB06080F60FC
:402580008B6002E00744C0EB0808B8F1000FB0DD43463A46216A2846A66AB0470028F1DCA38943F04003A3814FF0FF30BDE8F0810100402038B50B6905460C46DBB118B107
:4025C00083690BB900F060F80C4B9C4201D16C6808E00B4B9C4201D1AC6803E0094B9C4208BFEC68B4F90C302BB121462846BDE83840FFF759BF002038BD00BF7C2A000097
:402600009C2A0000BC2A0000014900F0A9B800BFB525000010B50446002303604360836081814366C281036143618361194608225C30FFF752FD054B24626362044BA3627C
:40264000044BE362044B236310BD00BF6128000083280000BB280000DF28000070B568234D1E5D430E4605F17401FFF78BFD044640B1002180E842000C30A06005F16802AD
:40268000FFF72BFD204670BD836910B5044633BB8364C3640365124B124A1B688262984204BF0123836100F01FF86060204600F01BF8A060204600F017F80022E060042129
:4026C0006068FFF7A7FF01220921A068FFF7A2FF02221221E068FFF79DFF0123A36110BD782A000009260000F8B51C4B07461E68B36913B93046FFF7C7FF4836B46873681D
:40270000013B04D4B4F90C507DB16834F8E733680BB13668F2E704213846FFF79FFF30600028F6D10C233B60F8BD4FF6FF73E3810123A38165662560A56065602561656107
:40274000A5610822294604F15C00FFF7C6FC6563A563A564E5642046F8BD00BF782A00002DE9F8438046894600F14804002694B1A5686768013F0CD4AB89012B07D9B5F99B
:402780000E30013303D029464046C84706436835F0E72468EBE73046BDE8F88370B50E46B1F90E1090B0002914461D4606DA00232B60B3891A060ED540230EE001AA00F0FF
:4027C000B5F80028F3DB029A02F47042A2F500535A425A412A604FF480630020236010B070BD00008B8973B59E0705460C4610D401AB6A46FFF7D2FF009906462846FFF7C3
:40280000C1FC68B9B4F90C309A0522D443F00203A38104F14703236023610123636118E00D4BAB62A389206043F08003A381009B20616361019B4BB1B4F90E10284600F02E
:4028400087F818B1A38943F00103A381A0893043A08102B070BD00BF092600007047704710B50C46B1F90E1000F094F80028ABBF636DA3891B1823F48053ACBF6365A38134
:4028800010BD2DE9F0411F468B890546DB050C46164605D502230022B1F90E1000F068F8A389324623F48053A381B4F90E103B462846BDE8F04100F017B810B50C46B1F9B7
:4028C0000E1000F055F8431CA38915BF606523F4805343F48053A38118BFA38110BDB1F90E1000F013B8000038B5074C054608461146002222601A4600F086F8431C02D122
:40290000236803B12B6038BDD886FF1F38B5064C002305460846236000F04EF8431C02D1236803B12B6038BDD886FF1F38B5074C0023054608461146236000F045F8431CD9
:4029400002D1236803B12B6038BD00BFD886FF1F38B5064C002305460846236000F03CF8431C02D1236803B12B6038BDD886FF1F38B5074C054608461146002222601A4647
:4029800000F032F8431C02D1236803B12B6038BDD886FF1F38B5074C054608461146002222601A4600F028F8431C02D1236803B12B6038BDD886FF1F024B58221A604FF05F
:4029C000FF307047D886FF1F024B58221A604FF0FF307047D886FF1F024B58221A600020704700BFD886FF1F024B58221A604FF0FF307047D886FF1F024B58221A604FF0DE
:402A0000FF307047D886FF1F024B58221A604FF0FF307047D886FF1F00000000FFFFFFFF0100000000000000000000000000000000000000FFFFFFFF010000004E6F20700B
:402A400061746820666F756E642E0000004F0040240040510040300000000140001000140140000800400140000A004C0140000200500140200043004485FF1F0000000058
:402A80000000000000000000000000000000000000000000000000000000000000000000000000000000000000000000000000000000000000000000000000000000000016
:402AC00000000000000000000000000000000000000000000000000000000000F8B500BFF8BC08BC9E4670474D000000190C0000F8B500BFF8BC08BC9E467047290000003D
:402B0000102B0000C880FF1FE004000038010000000000000100000001000000010000000100000001000000010000000100000001000000010000000100000001000000CC
:402B4000010000000100000001000000010000000100000001000000010000000100000001000000000000000100000000000000000000000000000000000000000000004B
:402B80000000000000000000000000000000000000000000000000000000000000000000000000000000000001000000010000000000000001000000000000000100000011
:402BC00001000000010000000100000001000000000000000100000001000000010000000000000001000000010000000100000000000000010000000100000000000000C9
:402C00000000000000000000010000000000000000000000000000000100000000000000000000000000000000000000000000000000000000000000010000000000000091
:402C40000100000001000000010000000100000000000000010000000000000001000000000000000100000001000000010000000000000001000000000000000100000049
:402C8000010000000100000000000000010000000100000000000000000000000000000001000000000000000100000000000000000000000000000001000000000000000D
:402CC00001000000000000000000000000000000000000000000000001000000010000000000000001000000010000000100000000000000010000000000000001000000CC
:402D0000000000000100000000000000010000000000000001000000010000000100000000000000010000000100000000000000010000000000000001000000000000008A
:402D4000000000000000000001000000000000000100000000000000010000000000000001000000000000000000000000000000010000000100000000000000010000004C
:402D80000000000001000000000000000100000001000000010000000000000001000000000000000100000000000000010000000000000001000000010000000100000009
:402DC00001000000000000000000000000000000010000000000000001000000000000000000000000000000010000000000000000000000000000000100000000000000CE
:402E00000000000000000000010000000100000001000000010000000000000001000000000000000100000001000000010000000100000001000000010000000100000086
:402E4000010000000100000001000000010000000000000001000000010000000000000000000000000000000000000000000000000000000000000000000000000000004C
:402E8000000000000000000000000000000000000000000000000000000000000000000001000000010000000000000001000000010000000100000001000000010000000B
:402EC00001000000010000000100000001000000010000000100000000000000010000000100000001000000010000000100000001000000000000000000000000000000C6
:402F0000000000000000000000000000000000000100000000000000000000000000000000000000000000000000000000000000000000000000000001000000010000008E
:402F40000100000001000000010000000100000001000000010000000100000001000000010000000100000001000000010000000100000001000000010000000100000041
:402F80000100000001000000E086FF1F000000007C2A00009C2A0000BC2A000000000000000000000000000000000000762A00000000000000000000000000000000000099
:402FC00000000000000000000000000000000000000000000000000000000000000000000000000000000000000000004485FF1F00000000000000000000000000000000EA
:403000000000000000000000000000000000000000000000000000000000000000000000000000000000000000000000000000000000000000000000000000000000000090
:403040000000000000000000000000000000000000000000000000000000000000000000000000000000000000000000000000000000000000000000000000000000000050
:403080000000000000000000000000000000000000000000000000000000000000000000000000000000000000000000000000000000000000000000000000000000000010
:4030C00000000000000000000000000000000000000000000000000000000000000000000000000000000000000000000000000000000000000000000000000000000000D0
:020000040003F7
:0200000480007A
:40000000064F00400852004006640040046500406600014032010140500201404B0301405B0401404F0501404C0601404807014002090140020B0140010D0140040E01406D
:40004000030F0140641401404B1501404E1601405217014002190140044001400E410140194201401043014004440140064501400846014007470140134801401549014075
:40008000094C0140034D01400A5001400251014001200A1B0D20161B1910224B0009010A088009C0600361017813790522C724C725C77403826F870F26C77503840F866FD2
:4000C0000F0215041601170819041A021B081D081F04210423093002330134013502370C3B804052410349FF4AFF4BFF4DA04F0150185608580459045A045B045D905F0164
:400100006040628064406540668068406A806C406D206E80840C86018807890A8D108E0F8F2191209310940C950696029D109F20A210A40BA50CA604A90CAC08AD10AE010E
:40014000AF20B010B101B20FB50EB730B920BB80C052C103C53CC640C72EC83BC9FFCAFFCBFFCDAFCE07CF01D018D608D804D904DA04DB04DD90DF01E040E280E440E5401A
:40018000E680E840EA80EC40ED20EE8005080709080809200E20158016A0180819011E601F0821682280274929012D082F0A3128328037493A403C203E60400441044314E0
:4001C000471448014B404D014F4454025618584059205D80600862406680C0E0C226C4B0CA71CCDECE38D066D218D61CD81CE24002010301043805020606070108340A0A90
:400200000C0A0E3413041640183E1B021C261E182104240E30013104321E330334603F0140424502480149FF4AFF4BFF540F5804590A5A0A5B045C905D095F0560806240ED
:40024000634064406540668068806A806C806E8080028102820C830485028714880889048B028F019502970C9802AC02AE01B008B108B204B310B402B506B601B701B820B7
:40028000BB20BE11D608D804D904DB04DD90DF01001001010508074509200B080C900E201002114012021708181419021A011C201D081E041F0221112244260127102E019F
:4002C000320436023710380839223A403D023F084410450947104F0858805C205E0A5F406240660867047C087F048020814084809008910193049404950898029A189B49F6
:400300009D08A002A280A308A411A702A9A0B042C0FAC2E2C421CA80CCA2CECFD0A0D6F8D868DE60EA0401020301060507020B080C051108120218041A01200821042C08AA
:400340002F01300131083204330434083503360238203E053F0540124720482049FF4AFF4BFF5608580459085A085B045C905D995F01608062406340644065406680688095
:400380006A806C806E8084A3865C887F8C968D028E688F0194FE96019A019C0E9EF09F02A301A4C5A63AB103B2FFBE04C061C602C804C9FFCAFFCBFFD608D804D908DA08F4
:4003C000DB04DC90DD99DF01E080E240E340E440E540E680E880EA80EC80EE8002020320050C070908100A800C800D080E041002110117041A501BA01E202004235027401F
:4004000028022A012C4030803283330C374038063A103F80400647404E045001574058805C805D2063026408670269507B017F018004834085108E019121928495089740CB
:4004400098029A109B099C089D089F04A012A108A280A308A481A520A610A902AA04AB10B501C0E5C2EAC429CA89CC11CE17D01CD220D638D838DE18E44804FE060108A3F1
:40048000095D0A5C0B200D400F08100E116612F01310147F1778193B1A011CC51E3A2380289629662A682B08317833C0350736FF39203E405608580459045B045D905F0101
:4004C0008210840B85018604880C8A028B098D048E0F8F02900C9201940896019C209D029F04A102A260A304A502A704A807AF01B020B106B210B40FB508B640B701BB02C7
:40050000BE01BF40D280D40FD604D804D904DB04DF01008401200380040405200620080809010A010E2A0F4010041120124014081520184219281A011F4020822344242005
:400540002531261529082A802B802D202F4032403408361138203B443E203F40580459015A505C80620267027280912092D4950896029A109B099C909D04A010A280A388A0
:40058000A401A520A880A960B040B204B310C06FC2FDC44ACAABCCE8CE3ED61FD811EC04EE80EA80EC04E408EA10EAA4B802BE01D804DF011C408C40E24001030B0419024F
:4005C0001B012404270328062A012C0630013104320234043502370138283E103F504052410649FF4AFF4BFF4DA04F015018540F5604580459045A045B045F016040628016
:4006000064406540668068406A806C406D206E8084C1861288B789FD8A408B028C848E10913093C994C095CF9624973099739A079D949F60A001A2F2A477A70FA99EAA08F9
:40064000AB60B2F0B3FFB40FBF04C056C102C50CC624C73EC83DC9FFCAFFCBFFCDAFCE07CF01D018D804D904DA04DB04DF01E040E280E440E540E680E840EA80EC40ED2041
:40068000EE800410062007010D28100211301220130814801718180419081A481D3C1F102251271029082E202F1831103480350436A0370138023A103C30400445204A013B
:4006C0004B604E044F4454025510564A57205AA15B0863806E206F028340841086118B0290029510964297049A109B099D049E4AA010A281A308A720A880B502B710C0E0D1
:40070000C260C477CA62CCF4CE25D024D23CD60FD801E680E840EE4000010D020E050F011108140817021A0A1B0127042D042E0830043202330334013508360837043E5097
:400740003F5040324602480449FF4AFF4BFF5280540F580459085A085B045C905D095F0560806240634064406540668068806A806C806E8084FD8602870788CF89F78A3078
:400780008C948E60909E92609430957796C999549BA09DA19F52A60FA708A873A9C0AB34AD31AFC2B2FFB30FB5F0BE04D804D904DB04DF0100840120030205010602080855
:4007C00009010AA00E241014112014101508174019081D011E2A2004211424082608271229282B022E402F203004325034203502360839283F804420471057405A085B08C2
:400800005C405D105E085F0266086704680A77407E047F0188028C0C904292049302940495089602982899209A109B099C909D049E40A050A111A280A308A804A901AA0215
:40084000B020C097C26CC486CA5ECCEECE16D060D6F0D860DE30E690E010EA80308037208D10CC305004540257405980841099109F20A480A601AA01D4E0D620E440EC80A1
:40088000194046025704611080048340854086028E40940899109C109D809F20A480A601A740A802C640D020D440D840E220E680EA201B041E4061106510938096409910B7
:4008C0009C109D809F20A480A601A704B340C630D8C014402802C404CA0811029F08AB08B042C408EA050110572087209F08B501C002D402EA0800029F08A304AB04B11071
:40090000C008EA012B08534057205A405F808B028F80924093809C109D80A304A480A601AB20CA10D4E0D620EA8008100E0270027F028080872088029C10A302A480A60171
:40094000A720AB08B580B704C2C0DC80DE20E220E610EC80630864808C809F08A304B001D803E008EA0113089F08C40800010101080109010A010B01100111011A011B01B0
:40098000000F04C0000F0F000F0000006007070007000000001F1F001F00000000CBCB00C00000000007070000000000C000000000000F002F001C010000000000000000E6
:4009C00000000000000000000000000000000000000000000000000000000000000000000000000000000000000000000000000000000000000000000000000000000000F7
:400A000000000000000000000000000000000000000000000000000000000000000000000000000000000000000000000000000000000000000000000000000000000000B6
:400A40000000000000000000000000000000000000000000000000000000000000000000000000000000000000000000000000000000000000000000000000000000000076
:400A80000000000000000000000000000000000000000000000000000000000000000000000000000000000000000000000000000000000000000000000000000000000036
:0200000490006A
:0400000000004005B7
:0200000490105A
:04000000BC90ACAF55
:0200000490303A
:0200000065D8C1
:0200000490402A
:4000000000000000000000000000000000000000000000000000000000000000000000000000000000000000000000000000000000000000000000000000000000000000C0
:400040000000000000000000000000000000000000000000000000000000000000000000000000000000000000000000000000000000000000000000000000000000000080
:400080000000000000000000000000000000000000000000000000000000000000000000000000000000000000000000000000000000000000000000000000000000000040
:4000C0000000000000000000000000000000000000000000000000000000000000000000000000000000000000000000000000000000000000000000000000000000000000
:0200000490501A
:0C00000000012E16106900012E29764127
:00000001FF