:400000000080002011000000510B0000510B000008B5044B1A6803F53F5302331A6000F09FFD00BFFA46004010B5054C237833B9044B13B10448AFF300800123237010BD23
:40004000A885FF1F0000000028180000084B10B51BB108490848AFF300800848036803B910BD074B002BFBD0BDE81040184700BF00000000AC85FF1F28180000C880FF1FBA
:400080000000000008B501F03FF8164A13781844107000F0EFFE144A13781844107000F057FF124A13781844107000F0BFFF104A1378184410700F4B1B68082B0AD100236C
:4000C000084A1370084A1370084A1370084A1370084A1360074A13680133136000F010FE08BD00BFEE85FF1FEC85FF1FEF85FF1FED85FF1FC485FF1F08B5002001F03AF948
:40010000212001F041F8442001F0B2F801F01CF90028B8BF40429F28F8DD322001F034F8322001F0A5F808BD08B5322001F02CF8322001F09DF808BD08B5002001F0B8F93E
:40014000442001F021F8212001F092F801F09AF90028B8BF40423128F8DD322001F014F8322001F085F808BD08B5002001F002F9212001F009F8442001F07AF801F0E4F81E
:400180000028B8BF40423628F8DD322000F0FCFF322001F06DF808BD08B51E2000F0F4FF1E2001F065F808BD10B50446002001F0E1F824E0174B1B784BB1174A127832B94E
:4001C00001F0AAF80130C0B201F052F817E04BB9114A127832B101F02BF80130C0B200F0D3FF0CE00C4A12783AB933B9442000F0CBFF452001F03CF801E0FFF7CDFF01F06B
:40020000A3F804EB840304EB43039842D2DBFFF78BFF10BDEE85FF1FEC85FF1F08B5134B1B784BB1124A127832B901F075F80130C0B201F01DF808BD4BB90D4A127832B175
:4002400000F0F6FF0130C0B200F09EFF08BD084A12783AB933B9462000F096FF472001F007F808BDFFF798FF08BD00BFEE85FF1FEC85FF1F30B583B062B600F087FD4C4879
:4002800000F016FD00F032FF00F0E6FD00F052FE00F0BEFE00F050FF00F0BCFF01F02EF8642000F06BFF642000F0DCFF322000F06BFF322000F0DCFF01F098F801F034F9C5
:4002C00011230D220121084600F084F80223009311230D220121084600F088F9002425E0344D55F83400FFF75FFF05EBC4052B79522B09D101E0FFF791FF00F00DFF002805
:40030000F9D1FFF731FF10E04C2B09D101E0FFF785FF00F009FF0028F9D1FFF70DFF04E0452B02D1FFF700FF02E001341D2CD7DDFFF7E2FEFFF7F8FE01231A4611210D2070
:4003400000F048F80323009301231A4611210D2000F04CF9002425E0164D55F83400FFF723FF05EBC4052B79522B09D101E0FFF755FF00F0D1FE0028F9D1FFF7F5FE10E0EE
:400380004C2B09D101E0FFF749FF00F0CDFE0028F9D1FFF7D1FE04E0452B02D1FFF7C4FE02E001341D2CD7DDFFF7BEFEFEE700BF85000000D88EFF1F0E2805D8002905DBED
:4003C000122905DD002070470020704700207047012070472DE9F04FADF5B45D81B081468B4692460193002515E00DF62410590019448C00E42202FB054281186FF000442D
:4004000084504FF0FF324A608A60013300E00023122BEADD01350E2DF9DD0BEB4B039A00E42303FB092300210DF62412D150CDF81C99CDF820B90DF60C15684C94E80F005D
:4004400085E80F000DF6FC05103494E80F0085E80F006EE0DDF8207907EB47039A00E42303FB08234FF0FF310DF62412D15000253EE00DF60C1353F8254044440DF6FC0387
:4004800053F825603E4431462046FFF795FF70B304EBC40304EB43033344514A52F823302BBB0DF6241107EB47039A00E42303FB08228A58013206EB460E4FEA8E008646B6
:4004C00003FB0403CB589A4211DA0B46700000EB060E4FEA8E014FF0E40E0EFB04F4214403EB010E5A50CEF80480CEF808700135032DBEDD00206FF0004418E003EB4302D0
:400500009100E42202FB00120DF624118A58B2F1FF3F06D0944204DDCDF81C09CDF820391446013300E00023122BE7DD01300E28F9DDDDF81C89D0458CD1DDF82039019A01
:40054000934287D1274A1368591C11600DF61C1205A901EBC30392E8030083E80300CDF80CA0019B049319E01E4A1468611C116003AA05A901EBC40492E8030084E8030096
:4005800001EB41018800E42101FB03030DF624110B44043393E8030082E80300039B9945E2D1049A9345DFD10E4B1B68013B00200DE005A951F833400B4A42F8304001EB06
:4005C000C301496802EBC0025160013B0130002BEFDA0DF5B45D01B0BDE8F08F2C180000CC80FF1FCC85FF1FF085FF1F2DE9F0419DF8187000244FF0FF3CA6460AE1884D7F
:4006000055F8346005EBC4056D6890421CD199421AD10EF1010E0CF1010C012F01D0032F05D10EEBCE037F4A42F83C3004E00EEB8E037C4A42F83C307A4B03EBCC0C45239F
:400640008CF80430BDE8F081032F00F2E280DFE807F0023B73AAB04206DDA94204D10EF1010E29463046D4E0B04214D1A94212DA0EF1010E0CF1010C0EEB8E01694840F89B
:400680003C1000EBCC0052210171294630464FF0000E0127BDE0B04240F0BB80A94240F3B8800EF1010E0CF1010C0EEB8E015D4840F83C1000EBCC004C2101712946304664
:4006C0004FF0000E0327A4E0B04206D1A94204DA0EF1010E294630469BE0B04214DAA94212D10EF1010E0CF1010C0EEBCE014D4840F83C1000EBCC005221017129463046D7
:400700004FF0000E022784E0B04240F38280A9427FD10EF1010E0CF1010C0EEBCE01414840F83C1000EBCC004C210171294630464FF0000E77466CE0B04206DAA94204D12D
:400740000EF1010E2946304663E0B04214D1A94212DD0EF1010E0CF1010C0EEB8E01314840F83C1000EBCC0052210171294630464FF0000E03274CE0B0424AD1A94248DAB7
:400780000EF1010E0CF1010C0EEB8E01254840F83C1000EBCC004C210171294630464FF0000E012735E0B04206D1A94204DD0EF1010E294630462CE0B04214DDA94212D15E
:4007C0000EF1010E0CF1010C0EEBCE01154840F83C1000EBCC0052210171294630464FF0000E774615E0B04213DAA94211D10EF1010E0CF1010C0EEBCE010A4840F83C1056
:4008000000EBCC004C210171294630464FF0000E02270134222C7FF7F2AEBDE8F08100BFF085FF1FD88EFF1FFEE700BFF0B40022174611E050F82760F3B226F0FF0608E013
:4008400001EB420511F812406D78A5550132013BDBB2002BF4D10137232FEBD9F0BC7047164B1B78DBB203F00701154A11701B09013213700F22134B1A70022203F22F7364
:400880001A70102203F515731A7040230E4A1370802105321170033213700532137003321370202105321170033213705022074B1A704422A3F2E2231A707047CF01004958
:4008C0006E5800403D510040C35A0040585B004008B50A46002100F09EFF08BD08B500F08FFF08BD38B50322314B1A801823314A13702F2230490A801C2002310870023185
:400900000A802E4A137004222D492E48FFF7E6FF06222D4B1A705222A3F580731A702B4B1B78DBB22A4A13704FF4E262294B1A8041F25122023B1A80002419250CE0264B34
:400940001B7803F0010343EA440404F003044FF4F07000F019FF013D0DB1032CEFD115B90320FFF761FF1D4A4FF4807313800723137000231A490B7048200231087013702C
:40098000053213700222174B1A7004220A331A70154A137843F007031370013A137843F001031370013A137843F08003137038BD8040004082400040844000408A40004052
:4009C000B409004800410040004300400F010049A14600402242004025420040044000400640004001400040A243004038B572B6404A137843F00403137000240CE03E4DF1
:400A0000630019194A0011462A44084691882858FFF75EFF0134E4B2062CF0D937494FF09040FFF703FF0322354B1A8040F2031202331A8040F2032202331A8040F20332A9
:400A400002331A802F4A03F52A430A331A60A2F50032A2F5007203F5A0531A602A4A137843F0020313701032137843F002031370264C237843F040032370A2F58632513AA9
:400A8000137843F010031370082221492148FFF725FF082220492148FFF720FF082220492048FFF71BFF08221F492048FFF716FF08221F491F48FFF711FF08221E491F48B3
:400AC000FFF70CFF1E4A137843F0080313701D4D61232B70FFF706FFC1232B7001221A4B1A70FFF7BDFE0E2221461848FFF7F6FE38BD00BFE84600404C180000900000483C
:400B000048580040040A0A4403500140A043004084090048025100408C090048C251004094090048F25100409C09004812510040A409004822510040AC09004832510040CA
:400B4000224300400048004004000840B043004008B500F029FE03680C2B00D1FEE7FEE708B5104E104D16E029686B68AC68002204E051F8040B43F8040B0432A242F8D147
:400B8000E868002203E0002143F8041B04328242F9D11035013E002EE6D100F00BFEFFF769FBFEE7010000009C18000008B5104A104B1A60104A136843F40073136000234A
:400BC0000AE0032B03D80D4A52F8231000E00C490C4A42F8231001332F2BF2D90A4B1A780A4B1A70074A0A4B1A60FFF7FFFE08BD0004FA050CED00E014ED00E00000000082
:400C0000510B00000080FF1FBC760040C080FF1F08ED00E001BE704770B504460E46074B1D681F2802D90020FFF7F4FF04F01F04103455F8240045F8246070BD08ED00E04B
:400C400038B504460D46072902D90020FFF7E2FF1F2C02D90020FFF7DDFF04F01F0000F1604000F564406D01EDB2057038BD00BF024B1B68C3F88C00704700BF08ED00E0FB
:400C80004001C0B2014B1870704700BF13E400E04FF40022014B1A60704700BF00E100E04FF40022014B1A60704700BF80E100E010B50446FFF7F4FF2046FFF7D9FF0720C9
:400CC000FFF7DEFFFFF7E4FF10BD00BF084A137843F0040313701032137843F00403137002F66532137843F001031370704700BFA3430040014B1870704700BF1B4F004034
:400D0000014B1878704700BF1B4F0040014B1880704700BF1C4F0040014B1880704700BF1E4F004008B5164A137803F0010313700232137803F0FC031370124B1A7802F074
:400D4000CF021A701A7842F030021A701A7802F0F0021A701A7842F00F021A700A4A137843F00103137040F2E730FFF7CFFF40F2E730FFF7D1FF0820FFF7BCFF08BD00BF27
:400D8000184F0040234F0040194F004008B5054B1B7823B9FFF7C6FF0122024B1A70FFF795FF08BDD085FF1F054A137843F0080313701032137843F008031370704700BFA0
:400DC000A74300400F490B7803F0FC0200F0030313430B7001280AD10B4B1B78DBB20B4A13700B4B1B78DBB2013213707047094B1B78DBB2054A1370074B1B78DBB2013216
:400E00001370704743580040130100493646004017010049B3010049BB01004908B50020FFF7D0FF0B4B1A7802F0DF021A701A7802F0FB021A701A7842F008021A7003F5DF
:400E400027731A7802F0E7021A701A7842F008021A7008BD4358004008B5054B1B7823B9FFF7DCFF0122024B1A70FFF79DFF08BDD185FF1F024B187800F00800704700BF8C
:400E8000965B0040054A137843F0040313701032137843F004031370704700BFA74300400F490B7803F0FC0200F0030313430B7001280AD10B4B1B78DBB20B4A13700B4B05
:400EC0001B78DBB2013213707047094B1B78DBB2054A1370074B1B78DBB201321370704742580040120100493446004016010049B1010049B901004908B50020FFF7D0FF50
:400F00000B4B1A7802F0DF021A701A7802F0FB021A701A7842F008021A7003F295231A7802F0E7021A701A7842F008021A7008BD4258004008B5054B1B7823B9FFF7DCFF21
:400F40000122024B1A70FFF79DFF08BDD285FF1F024B187800F00400704700BF965B0040054A137843F0020313701032137843F002031370704700BFA74300400F490B789B
:400F800003F0FC0200F0030313430B7001280AD10B4B1B78DBB20B4A13700B4B1B78DBB2013213707047094B1B78DBB2054A1370074B1B78DBB20132137070474158004046
:400FC000110100493246004015010049AF010049B701004908B50020FFF7D0FF0B4B1A7802F0DF021A701A7802F0FB021A701A7842F008021A7003F28E231A7802F0E70228
:401000001A701A7842F008021A7008BD4158004008B5054B1B7823B9FFF7DCFF0122024B1A70FFF79DFF08BDD385FF1F024B187800F00200704700BF965B0040054A1378CC
:4010400043F0010313701032137843F001031370704700BFA74300400F490B7803F0FC0200F0030313430B7001280AD10B4B1B78DBB20B4A13700B4B1B78DBB2013213707E
:401080007047094B1B78DBB2054A1370074B1B78DBB201321370704740580040100100493046004014010049AD010049B501004908B50020FFF7D0FF0B4B1A7802F0DF02BB
:4010C0001A701A7802F0FB021A701A7842F008021A7003F287231A7802F0E7021A701A7842F008021A7008BD4058004008B5054B1B7823B9FFF7DCFF0122024B1A70FFF73B
:401100009DFF08BDD485FF1F024B187800F00100704700BF965B0040024B1878C0F3C000704700BF01510040024B1878C0F38000704700BF01510040054A137843F00403DE
:4011400013701032137843F004031370704700BFA2430040084A137843F0010313701032137843F00103137002F64D32137843F001031370704700BFA3430040014B18806D
:40118000704700BF044F0040014B1880704700BF064F0040014B1870704700BF034F004008B5194A137843F0020313700232137803F08F0343F010031370144B1A7802F005
:4011C000CF021A701A7842F030021A701A7802F0F0021A701A7842F00F021A706420FFF7CDFF5020FFF7D0FF0020FFF7D3FF084A137843F00103137002F65E32137843F075
:401200000103137008BD00BF004F00400B4F0040A343004008B5054B1B7823B9FFF7C0FF0122024B1A70FFF795FF08BDD585FF1F014B1888C0B27047064F0040084A1378DB
:4012400043F0020313701032137843F00203137002F65932137843F001031370704700BFA3430040014B1880704700BF104F0040014B1880704700BF124F0040014B1870FF
:40128000704700BF0F4F004008B5194A137843F0020313700232137803F08F0343F010031370144B1A7802F0CF021A701A7842F030021A701A7802F0F0021A701A7842F025
:4012C0000F021A706420FFF7CDFF5020FFF7D0FF0020FFF7D3FF084A137843F00203137002F66A32137843F00103137008BD00BF0C4F0040174F0040A343004008B5054B87
:401300001B7823B9FFF7C0FF0122024B1A70FFF795FF08BDD685FF1F014B1888C0B27047124F004008B50122054B1A6005490020FFF772FC07210020FFF782FC08BD00BF55
:4013400080E100E02114000010B50124064B1C6000F03EF9A0F5004000B2044B1B68044A1460184410BD00BF80E100E0D885FF1F00E100E038B505460124054B1C604FF42D
:40138000004000F01FF9034B1D60034B1C6038BD80E100E0D885FF1F00E100E0024B187800F00F00704700BF6465004040F00700014B1870704700BF8465004008B50F20ED
:4013C000FFF7F4FFFFF7EAFF00F0E6F9054A137843F01003137000F0E3F90122024B1A6008BD00BF9465004000E100E008B500F041F94FF4004000F0E5F80022064B1A605B
:40140000064B1B7823B9FFF78DFF0122034B1A70FFF7D4FF08BD00BFD885FF1FD785FF1F0D4B1B78DBB213F0010F06D00B490A6802F5FF427F320A6007E013F0020F04D0E4
:4014400006490A68A2F500420A6013F0040F02D00022024B1A60704764650040D885FF1F08B50222054B1A6005490120FFF7D4FB07210120FFF7E4FB08BD00BF80E100E09A
:401480005D15000010B50224064B1C6000F01AF9A0F5004000B2044B1B68044A1460184410BD00BF80E100E0E085FF1F00E100E038B505460224054B1C604FF4004000F0DA
:4014C000FBF8034B1D60034B1C6038BD80E100E0E085FF1F00E100E0024B187800F00F00704700BF6764004040F00700014B1870704700BF8764004008B50F20FFF7F4FF0C
:40150000FFF7EAFF00F048F9054A137843F01003137000F045F90222024B1A6008BD00BF9764004000E100E008B500F01DF94FF4004000F0C1F80022064B1A60064B1B789F
:4015400023B9FFF78DFF0122034B1A70FFF7D4FF08BD00BFE085FF1FDC85FF1F0D4B1B78DBB213F0010F06D00B490A6802F5FF427F320A6007E013F0020F04D006490A68B9
:40158000A2F500420A6013F0040F02D00022024B1A60704767640040E085FF1F024A137843F080031370704776650040014B1870704700BF86650040014B1878704700BF29
:4015C00066650040014B1880704700BF086A0040024B1B78024B188880B2704704650040886A0040014B188880B27047886A0040014B1880704700BF486A0040014B18800C
:40160000704700BF686A004008B501E0FFF7EAFFFFF7D2FF10F0400FF8D108BD08B5134B1A7802F0F8021A701A7802F0FC021A70FFF7EAFF4FF40040FFF7DAFF4FF400401E
:40164000FFF7C0FF0020FFF7B1FFFFF7B5FF4FF40040FFF7D3FF00F09FF8054A137843F01003137000F09CF808BD00BF766500409665004008B5054B1B7823B9FFF7CEFF33
:401680000122024B1A70FFF789FF08BDE485FF1F024A137843F080031370704777640040014B1870704700BF82640040014B1878704700BF62640040014B1880704700BF62
:4016C00000680040024B1B78024B188880B270470064004080680040014B188880B2704780680040014B1880704700BF40680040014B1880704700BF6068004008B501E081
:40170000FFF7EAFFFFF7D2FF10F0400FF8D108BD08B5134B1A7802F0F8021A701A7802F0FC021A70FFF7EAFF4FF40040FFF7DAFF4FF40040FFF7C0FF0020FFF7B1FFFFF7D2
:40174000B5FF4FF40040FFF7D3FF00F025F8054A137843F01003137000F022F808BD00BF776400409264004008B5054B1B7823B9FFF7CEFF0122024B1A70FFF789FF08BD5F
:40178000E585FF1F000000000230800803D000BF01380046FCD17047EFF3108072B6704780F31088704700BF014B1868704700BFA085FF1F0E4B70B51E460E4C0025E41A9C
:4017C000A410A54204D056F8253098470135F8E700F052F8084B094C1E46E41AA4100025A54204D056F8253098470135F8E770BD8418000084180000841800008C180000CF
:4018000010B5431E0A44914204D011F8014B03F8014FF8E710BD03460244934202D003F8011BFAE7704700000000000001000000FFFFFFFF0000000000000000000000005F
:401840000000000001000000FFFFFFFF004F0040240040510040300000000140001000140140000800400140000A004C014000020050014020004300F8B500BFF8BC08BC17
:401880009E4670474D000000AD0B0000F8B500BFF8BC08BC9E46704729000000B0180000C880FF1FE0040000F80900000000000000000000010000000100000001000000CA
:4018C00001000000010000000100000001000000010000000100000001000000010000000100000001000000010000000100000001000000010000000100000001000000D8
:4019000001000000000000000100000000000000000000000000000000000000000000000000000000000000000000000000000000000000000000000000000000000000A5
:40194000000000000000000001000000010000000000000001000000000000000100000001000000010000000100000001000000000000000100000001000000010000005C
:401980000000000001000000010000000100000000000000010000000100000000000000000000000000000001000000000000000000000000000000010000000000000020
:4019C00000000000000000000000000000000000000000000000000001000000000000000100000001000000010000000100000000000000010000000000000001000000E0
:401A0000000000000100000001000000010000000000000001000000000000000100000001000000010000000000000001000000010000000000000000000000000000009D
:401A40000100000000000000010000000000000000000000000000000100000000000000010000000000000000000000000000000000000000000000010000000100000060
:401A8000000000000100000001000000010000000000000001000000000000000100000000000000010000000000000001000000000000000100000001000000010000001C
:401AC00000000000010000000100000000000000010000000000000001000000000000000000000000000000010000000000000001000000000000000100000000000000DF
:401B0000010000000000000000000000000000000100000001000000000000000100000000000000010000000000000001000000010000000100000000000000010000009C
:401B4000000000000100000000000000010000000000000001000000010000000100000001000000000000000000000000000000010000000000000001000000000000005D
:401B8000000000000000000001000000000000000000000000000000010000000000000000000000000000000100000001000000010000000100000000000000010000001E
:401BC00000000000010000000100000001000000010000000100000001000000010000000100000001000000010000000100000000000000010000000100000000000000D8
:401C000000000000000000000000000000000000000000000000000000000000000000000000000000000000000000000000000000000000000000000000000000000000A4
:401C40000100000001000000000000000100000001000000010000000100000001000000010000000100000001000000010000000100000001000000000000000100000056
:401C8000010000000100000001000000010000000100000000000000000000000000000000000000000000000000000000000000010000000000000000000000000000001E
:401CC00000000000000000000000000000000000000000000000000001000000010000000100000001000000010000000100000001000000010000000100000001000000DA
:401D00000100000001000000010000000100000001000000010000000100000001000000010000000100000000000000000000000000000000000000000000000000000099
:401D400000000000000000007618000000000000000000000000000000000000000000000000000000000000000000000000000000000000000000000000000000000000D5
:401D800000000000000000004085FF1F0000000000000000000000000000000000000000000000000000000000000000000000000000000000000000000000000000000040
:401DC00000000000000000000000000000000000000000000000000000000000000000000000000000000000000000000000000000000000000000000000000000000000E3
:401E000000000000000000000000000000000000000000000000000000000000000000000000000000000000000000000000000000000000000000000000000000000000A2
:401E40000000000000000000000000000000000000000000000000000000000000000000000000000000000000000000000000000000000000000000000000000000000062
:401E80000000000000000000000000000000000000000000000000000000000000000000000000000000000000000000000000000000000000000000000000000000000022
:020000040003F7
:0200000480007A
:40000000064F00400852004006640040046500406600014032010140500201404B0301405B0401404F0501404C0601404807014002090140020B0140010D0140040E01406D
:40004000030F0140641401404B1501404E1601405217014002190140044001400E410140194201401043014004440140064501400846014007470140134801401549014075
:40008000094C0140034D01400A5001400251014001200A1B0D20161B1910224B0009010A088009C0600361017813790522C724C725C77403826F870F26C77503840F866FD2
:4000C0000F0215041601170819041A021B081D081F04210423093002330134013502370C3B804052410349FF4AFF4BFF4DA04F0150185608580459045A045B045D905F0164
:400100006040628064406540668068406A806C406D206E80840C86018807890A8D108E0F8F2191209310940C950696029D109F20A210A40BA50CA604A90CAC08AD10AE010E
:40014000AF20B010B101B20FB50EB730B920BB80C052C103C53CC640C72EC83BC9FFCAFFCBFFCDAFCE07CF01D018D608D804D904DA04DB04DD90DF01E040E280E440E5401A
:40018000E680E840EA80EC40ED20EE8005080709080809200E20158016A0180819011E601F0821682280274929012D082F0A3128328037493A403C203E60400441044314E0
:4001C000471448014B404D014F4454025618584059205D80600862406680C0E0C226C4B0CA71CCDECE38D066D218D61CD81CE24002010301043805020606070108340A0A90
:400200000C0A0E3413041640183E1B021C261E182104240E30013104321E330334603F0140424502480149FF4AFF4BFF540F5804590A5A0A5B045C905D095F0560806240ED
:40024000634064406540668068806A806C806E8080028102820C830485028714880889048B028F019502970C9802AC02AE01B008B108B204B310B402B506B601B701B820B7
:40028000BB20BE11D608D804D904DB04DD90DF01001001010508074509200B080C900E201002114012021708181419021A011C201D081E041F0221112244260127102E019F
:4002C000320436023710380839223A403D023F084410450947104F0858805C205E0A5F406240660867047C087F048020814084809008910193049404950898029A189B49F6
:400300009D08A002A280A308A411A702A9A0B042C0FAC2E2C421CA80CCA2CECFD0A0D6F8D868DE60EA0401020301060507020B080C051108120218041A01200821042C08AA
:400340002F01300131083204330434083503360238203E053F0540124720482049FF4AFF4BFF5608580459085A085B045C905D995F01608062406340644065406680688095
:400380006A806C806E8084A3865C887F8C968D028E688F0194FE96019A019C0E9EF09F02A301A4C5A63AB103B2FFBE04C061C602C804C9FFCAFFCBFFD608D804D908DA08F4
:4003C000DB04DC90DD99DF01E080E240E340E440E540E680E880EA80EC80EE8002020320050C070908100A800C800D080E041002110117041A501BA01E202004235027401F
:4004000028022A012C4030803283330C374038063A103F80400647404E045001574058805C805D2063026408670269507B017F018004834085108E019121928495089740CB
:4004400098029A109B099C089D089F04A012A108A280A308A481A520A610A902AA04AB10B501C0E5C2EAC429CA89CC11CE17D01CD220D638D838DE18E44804FE060108A3F1
:40048000095D0A5C0B200D400F08100E116612F01310147F1778193B1A011CC51E3A2380289629662A682B08317833C0350736FF39203E405608580459045B045D905F0101
:4004C0008210840B85018604880C8A028B098D048E0F8F02900C9201940896019C209D029F04A102A260A304A502A704A807AF01B020B106B210B40FB508B640B701BB02C7
:40050000BE01BF40D280D40FD604D804D904DB04DF01008401200380040405200620080809010A010E2A0F4010041120124014081520184219281A011F4020822344242005
:400540002531261529082A802B802D202F4032403408361138203B443E203F40580459015A505C80620267027280912092D4950896029A109B099C909D04A010A280A388A0
:40058000A401A520A880A960B040B204B310C06FC2FDC44ACAABCCE8CE3ED61FD811EC04EE80EA80EC04E408EA10EAA4B802BE01D804DF011C408C40E24001030B0419024F
:4005C0001B012404270328062A012C0630013104320234043502370138283E103F504052410649FF4AFF4BFF4DA04F015018540F5604580459045A045B045F016040628016
:4006000064406540668068406A806C406D206E8084C1861288B789FD8A408B028C848E10913093C994C095CF9624973099739A079D949F60A001A2F2A477A70FA99EAA08F9
:40064000AB60B2F0B3FFB40FBF04C056C102C50CC624C73EC83DC9FFCAFFCBFFCDAFCE07CF01D018D804D904DA04DB04DF01E040E280E440E540E680E840EA80EC40ED2041
:40068000EE800410062007010D28100211301220130814801718180419081A481D3C1F102251271029082E202F1831103480350436A0370138023A103C30400445204A013B
:4006C0004B604E044F4454025510564A57205AA15B0863806E206F028340841086118B0290029510964297049A109B099D049E4AA010A281A308A720A880B502B710C0E0D1
:40070000C260C477CA62CCF4CE25D024D23CD60FD801E680E840EE4000010D020E050F011108140817021A0A1B0127042D042E0830043202330334013508360837043E5097
:400740003F5040324602480449FF4AFF4BFF5280540F580459085A085B045C905D095F0560806240634064406540668068806A806C806E8084FD8602870788CF89F78A3078
:400780008C948E60909E92609430957796C999549BA09DA19F52A60FA708A873A9C0AB34AD31AFC2B2FFB30FB5F0BE04D804D904DB04DF0100840120030205010602080855
:4007C00009010AA00E241014112014101508174019081D011E2A2004211424082608271229282B022E402F203004325034203502360839283F804420471057405A085B08C2
:400800005C405D105E085F0266086704680A77407E047F0188028C0C904292049302940495089602982899209A109B099C909D049E40A050A111A280A308A804A901AA0215
:40084000B020C097C26CC486CA5ECCEECE16D060D6F0D860DE30E690E010EA80308037208D10CC305004540257405980841099109F20A480A601AA01D4E0D620E440EC80A1
:40088000194046025704611080048340854086028E40940899109C109D809F20A480A601A740A802C640D020D440D840E220E680EA201B041E4061106510938096409910B7
:4008C0009C109D809F20A480A601A704B340C630D8C014402802C404CA0811029F08AB08B042C408EA050110572087209F08B501C002D402EA0800029F08A304AB04B11071
:40090000C008EA012B08534057205A405F808B028F80924093809C109D80A304A480A601AB20CA10D4E0D620EA8008100E0270027F028080872088029C10A302A480A60171
:40094000A720AB08B580B704C2C0DC80DE20E220E610EC80630864808C809F08A304B001D803E008EA0113089F08C40800010101080109010A010B01100111011A011B01B0
:40098000000F04C0000F0F000F0000006007070007000000001F1F001F00000000CBCB00C00000000007070000000000C000000000000F002F001C010000000000000000E6
:4009C00000000000000000000000000000000000000000000000000000000000000000000000000000000000000000000000000000000000000000000000000000000000F7
:400A000000000000000000000000000000000000000000000000000000000000000000000000000000000000000000000000000000000000000000000000000000000000B6
:400A40000000000000000000000000000000000000000000000000000000000000000000000000000000000000000000000000000000000000000000000000000000000076
:400A80000000000000000000000000000000000000000000000000000000000000000000000000000000000000000000000000000000000000000000000000000000000036
:0200000490006A
:0400000000004005B7
:0200000490105A
:04000000BC90ACAF55
:0200000490303A
:0200000027DAFD
:0200000490402A
:4000000000000000000000000000000000000000000000000000000000000000000000000000000000000000000000000000000000000000000000000000000000000000C0
:400040000000000000000000000000000000000000000000000000000000000000000000000000000000000000000000000000000000000000000000000000000000000080
:400080000000000000000000000000000000000000000000000000000000000000000000000000000000000000000000000000000000000000000000000000000000000040
:4000C0000000000000000000000000000000000000000000000000000000000000000000000000000000000000000000000000000000000000000000000000000000000000
:0200000490501A
:0C00000000012E16106900012E2238436A
:00000001FF